:020000040800F2
:1000000068060020650200086D0200086F02000803
:100010007102000873020008750200080000000069
:10002000000000000000000000000000770200084F
:1000300079020008000000007B0200087D02000831
:100040007F0200087F0200087F0200087F0200088C
:100050007F0200087F0200087F0200087F0200087C
:100060007F0200087F0200087F0200087F0200086C
:100070007F0200087F0200087F0200087F0200085C
:100080007F0200087F0200087F0200087F0200084C
:100090007F0200087F0200087F0200087F0200083C
:1000A0007F0200087F0200087F0200087F0200082C
:1000B0007F0200087F0200087F0200087F0200081C
:1000C0007F0200087F0200087F0200087F0200080C
:1000D0007F0200087F0200087F0200087F020008FC
:1000E0007F0200087F0200087F0200087F020008EC
:1000F0007F0200087F0200087F0200087F020008DC
:100100007F0200087F0200087F0200087F020008CB
:100110007F0200087F0200087F0200087F020008BB
:100120007F0200087F0200087F0200087F020008AB
:100130007F02000800000000000000007F020008AD
:100140007F0200087F0200087F0200087F0200088B
:100150007F0200087F0200087F0200087F0200087B
:100160007F0200087F0200087F0200087F0200086B
:100170007F0200087F0200087F02000800000000E4
:10018000000000007F0200080000000000000000E6
:100190007F02000800000000000000007F0200084D
:1001A0000000000000000000000000007F020008C6
:1001B0007F0200087F0200087F0200087F0200081B
:1001C0007F02000800F002F800F03CF80AA090E876
:1001D000000C82448344AAF10107DA4501D100F002
:1001E00031F8AFF2090EBAE80F0013F0010F18BF93
:1001F000FB1A43F001031847BC080000DC080000AC
:10020000103A24BF78C878C1FAD8520724BF30C842
:1002100030C144BF04680C60704700000023002414
:1002200000250026103A28BF78C1FBD8520728BF06
:1002300030C148BF0B6070471FB500F024FC1FBDE4
:1002400010B510BD00F031F81146FFF7F5FF00F0D2
:10025000E5FB00F04FF803B4FFF7F2FF03BC00F03A
:1002600057F800000948804709480047FEE7FEE7C5
:10027000FEE7FEE7FEE7FEE7FEE7FEE7FEE7FEE756
:1002800004480549054A064B7047000091090008DB
:10029000C5010008680000206806002068020020F0
:1002A00068020020704770477047754600F02CF8D0
:1002B000AE4605006946534620F00700854618B053
:1002C00020B5FFF7DDFFBDE820404FF000064FF0FE
:1002D00000074FF000084FF0000BAC46ACE8C00937
:1002E000ACE8C009ACE8C009ACE8C00921F00701DE
:1002F0008D46704710B50446AFF300802046BDE838
:100300001040FFF7A8BF0000004870470800002019
:1003100001491820ABBEFEE726000200704700002E
:1003200082B00190009143F63001C4F202010868E6
:1003300040F40010086046F28801C4F20201086827
:1003400020F001000860086840F4807008600868C8
:1003500020F400700860086840F480600860086855
:1003600020F4F0400860086820F0C00008600868C9
:1003700040F000700860009846F28C02C4F202025D
:10038000106046F29002C4F2020245F21040C4F23C
:1003900000001060019846F29402C4F2020210605C
:1003A000086840F010000860086840F0010008602C
:1003B00002B0704743F63001C4F20201086840F011
:1003C00002000860086840F00400086040F2004144
:1003D000C4F20201086820F443300860086840F461
:1003E0008230086040F60001C4F20201086820F47F
:1003F0007F400860086840F4AA40086040F20C4161
:10040000C4F20201086820F44330086040F60C0191
:10041000C4F20201086820F47F40086070470000C1
:1004200043F64001C4F20201086840F4001008607D
:1004300045F20442C4F20002106840F0100010605F
:1004400045F21C41C4F20001086820F40040086035
:10045000086840F05000086045F22041C4F20001F5
:100460001120086045F20041C4F20001086840F420
:1004700080600860086820F08000086045F208434A
:10048000C4F20003186820F40040186043F63003FB
:10049000C4F20203186840F00200186040F2004302
:1004A000C4F20203186820F470401860186840F421
:1004B0002040186040F20443C4F20203186840F080
:1004C000C000186040F20C43C4F20203186820F424
:1004D00070401860186840F4A040186040F2204353
:1004E000C4F20203186840F088401860106840F4B5
:1004F00000601060086840F001000860704700006C
:1005000080B584B003908DF80B1001920398019987
:10051000FFF706FF9DF80B009DF80410012200F084
:1005200003F804B080BD000083B002908DF807107E
:100530008DF8062045F20041C4F20001086840F43D
:1005400080700860029A9DF8060000EB420045F2B8
:100550001042C4F200021060086840F400700860A5
:1005600003B0704780B5002000F044F8012000F08F
:1005700041F880BD80B586B0FFF71CFF142000F065
:1005800017FA0320019000F035F8052000F010FA6A
:10059000019800F02FF80120049000F009FA01986A
:1005A00000F028F80220029000F024F8029800F0F1
:1005B00021F80820039000F01DF80020059000F0BD
:1005C00019F8039800F016F8059800F013F804984D
:1005D00000F010F8059800F00DF8062000F00AF879
:1005E000059800F007F80C2000F004F8FFF7BAFFB8
:1005F00006B080BD80B582B0019040F21441C4F2D3
:1006000002010091086820F020000860086840F4AA
:1006100080700860019800F00BF8042000F0C8F921
:100620000099086820F48070086002B080BD000066
:1006300081B000909DF80000C00748B1FFE740F688
:100640001401C4F20201086840F01000086008E0DC
:1006500040F61401C4F20201086820F0100008609E
:10066000FFE79DF800008007002809D5FFE740F666
:100670001401C4F20201086840F02000086008E09C
:1006800040F61401C4F20201086820F0200008605E
:10069000FFE79DF800004007002809D5FFE740F676
:1006A0001401C4F20201086840F04000086008E04C
:1006B00040F61401C4F20201086820F0400008600E
:1006C000FFE79DF800000007002809D5FFE740F686
:1006D0001401C4F20201086840F08000086008E0DC
:1006E00040F61401C4F20201086820F0800008609E
:1006F000FFE701B07047000080B582B08DF80700B9
:100700008DF806109DF80700012819D1FFE79DF824
:1007100006007F308DF805009DF8050000098DF872
:1007200004009DF8050000F00F008DF803009DF80F
:100730000400FFF75FFF9DF80300FFF75BFF5CE03D
:100740009DF80700022819D1FFE79DF80600BF3089
:100750008DF805009DF8050000098DF804009DF84E
:10076000050000F00F008DF803009DF80400FFF76E
:1007700041FF9DF80300FFF73DFF3DE09DF80700B6
:10078000032819D1FFE79DF8060093308DF8050086
:100790009DF8050000098DF804009DF8050000F0A3
:1007A0000F008DF803009DF80400FFF723FF9DF86C
:1007B0000300FFF71FFF1EE09DF80700042819D172
:1007C000FFE79DF80600D3308DF805009DF8050081
:1007D00000098DF804009DF8050000F00F008DF869
:1007E00003009DF80400FFF705FF9DF80300FFF7E5
:1007F00001FFFFE7FFE7FFE7FFE702B080BD000072
:1008000080B584B08DF80F009DF80F0000280BD440
:10081000FFE79DF80F00092806DCFFE79DF80F00B1
:1008200030308DF80F00FFE79DF80F0000F00F004B
:100830008DF80E009DF80F0000F0F0008DF80D000F
:1008400040F21441C4F202010291086840F0200015
:1008500008609DF80D000009FFF7EAFE029908689C
:1008600040F4807008600420019000F0A1F8029923
:10087000086820F4807008609DF80E00FFF7D8FE2D
:100880000198029A116841F48071116000F090F8AB
:100890000299086820F48070086004B080BD0000F0
:1008A00080B588B00790079820B9FFE70020FFF7D0
:1008B000A7FFFFE70798092804D8FFE70020FFF704
:1008C0009FFFFFE707980690002005900120029007
:1008D000FFE7069868B1FFE706984CF6CD41CCF6E5
:1008E000CC41A0FB0110C00806900598013005908E
:1008F000EFE700200490FFE70498059988422CD286
:10090000FFE701200390FFE703980599049A891AED
:1009100088420AD2FFE7029800EB80004000029074
:10092000FFE7039801300390EEE707980299B0FBC8
:10093000F1F08DF807009DF80700FFF761FF079AB7
:100940000299B2FBF1F000FB112007900120029008
:10095000FFE7049801300490CEE708B080BD0000A6
:1009600080B582B0019000200090FFE701980099C7
:10097000405C50B1FFE701980099405CFFF740FFF1
:10098000FFE7009801300090F0E702B080BD000062
:100990004EF68851CEF20001086840F470000860FD
:1009A0004EF60851CEF200014FF00060086070472B
:1009B00082B001904EF21401CEF2000143F67F6046
:1009C00008604EF21801CEF20001002008604EF2DD
:1009D0001002CEF20002116841F005011160009092
:1009E000FFE700980199884210DAFFE7FFE74EF22F
:1009F0001000CEF200000068C003002801D4FFE719
:100A0000F5E7FFE7009801300090EAE74EF21001A9
:100A1000CEF200010020086002B0704780B582B0BD
:100A200000200190FFF7A6FD012000900521FFF7AF
:100A300063FE40F6A720C0F60000FFF791FF009983
:100A40000220FFF759FE40F6A020C0F60000FFF795
:100A500087FFFFF7E5FCFFE740F20000C2F200006D
:100A60004D210122FFF74CFD02200721FFF744FE34
:100A70006420FFF79DFF45F21040C4F200000068BB
:100A8000FFF70EFFE8E7F1EE100A4FF6FF71C0F234
:100A9000C03120EA010040F04070E1EE100A7047DA
:100AA00054454D503A200054455354494E47205424
:100AB00043373400D80A0008000000200800000076
:100AC00000020008E00A000808000020600600009C
:100AD0001C0200080000000063000000000000008D
:04000005080001C529
:00000001FF
