:020000040800F2
:10000000F806002065020008BF1200081F12000851
:10001000BD1200085B040008551400080000000031
:10002000000000000000000000000000C3120008F3
:100030005D04000800000000C1120008C51200089D
:100040007F0200087F0200087F0200087F0200088C
:100050007F0200087F0200087F0200087F0200087C
:100060007F0200087F0200087F0200087F0200086C
:100070007F0200087F0200087F0200087F0200085C
:100080007F0200087F0200087F0200087F0200084C
:100090007F0200087F0200087F0200087F0200083C
:1000A0007F0200087F0200087F0200087F0200082C
:1000B0007F0200087F0200087F0200087F0200081C
:1000C0007F0200087F0200087F0200087F0200080C
:1000D0007F0200087F0200087F0200087F020008FC
:1000E0007F0200087F0200087F0200087F020008EC
:1000F0007F0200087F0200087F0200087F020008DC
:100100007F0200087F0200087F0200087F020008CB
:100110007F0200087F020008711300087F020008B8
:100120007F0200087F0200087F0200087F020008AB
:100130007F02000800000000000000007F020008AD
:100140007F0200087F0200087F0200087F0200088B
:100150007F0200087F0200087F0200087F0200087B
:100160007F0200087F0200087F0200087F0200086B
:100170007F0200087F0200087F02000800000000E4
:10018000000000007F0200080000000000000000E6
:100190007F02000800000000000000007F0200084D
:1001A0000000000000000000000000007F020008C6
:1001B0007F0200087F0200087F0200087F0200081B
:1001C0007F02000800F002F800F03CF80AA090E876
:1001D000000C82448344AAF10107DA4501D100F002
:1001E00031F8AFF2090EBAE80F0013F0010F18BF93
:1001F000FB1A43F001031847C8120000E812000080
:10020000103A24BF78C878C1FAD8520724BF30C842
:1002100030C144BF04680C60704700000023002414
:1002200000250026103A28BF78C1FBD8520728BF06
:1002300030C148BF0B6070471FB501F033F91FBDD7
:1002400010B510BD00F0CFF81146FFF7F5FF01F033
:1002500013F900F0EDF803B4FFF7F2FF03BC00F070
:10026000F5F800000948804709480047FEE7FEE727
:10027000FEE7FEE7FEE7FEE7FEE7FEE7FEE7FEE756
:1002800004480549054A064B704700006113000801
:10029000C5010008F8000020F8060020F802002040
:1002A000F802002053EA020C00F069802DE9F04BBF
:1002B0004FF00006002B1FBFB3FA83F503FA05F4D5
:1002C00024FA05F65E4012BF1643B2FA82F502FA2E
:1002D00005F4C5F120051EBF22FA05FC44EA0C0412
:1002E000203556EA044C4FEA144418BF641C4FF002
:1002F00000084FF00009904271EB030C39D300293C
:1003000019BFB1FA81F701FA07F6B0FA80F700FADF
:1003100007F6C7F120071EBF20FA07FC46EA0C06C5
:100320002037B6FBF4FCA7EB0507103F07F01F0BC7
:10033000CBF120060CFA0BFB2CFA06F644BFB346B1
:100340000026202FA4BF5E464FF0000B5BEA060C90
:1003500008BF4FF0010B19EB0B09ABFB027C48EB1C
:100360000608C01B06FB02CC0BFB03CC71EB0C0197
:10037000C1E70B46024641464846BDE8F08B13B53F
:100380004FF000004FF00001AFF30080BDE81C40CB
:1003900070474FF0000200B5134694469646203948
:1003A00022BFA0E80C50A0E80C50B1F12001BFF42E
:1003B000F7AF090728BFA0E80C5048BF0CC05DF894
:1003C00004EB890028BF40F8042B08BF704748BFE2
:1003D00020F8022B11F0804F18BF00F8012B704756
:1003E000704770477047754600F02CF8AE46050020
:1003F0006946534620F00700854618B020B5FFF740
:100400003FFFBDE820404FF000064FF000074FF0DF
:1004100000084FF0000B21F00701AC46ACE8C00922
:10042000ACE8C009ACE8C009ACE8C0098D4670472B
:1004300010B50446AFF300802046BDE81040FFF73A
:100440000ABF0000004870479400002001491820AE
:10045000ABBEFEE7260002007047FEE7704772B6AB
:10046000FEE7704770B54379012B1CD00126467119
:100470000223037105682B6802F0100440F6FE7237
:10048000A2409343D1E900210A43A2401A432A60C3
:1004900001680A68C023A3409A430A6006710021DC
:1004A0004171084670BD022070BD704770B50446AA
:1004B000006801684FF00405890411D5416B890477
:1004C0000ED52571216941F001012161E9024163E5
:1004D0002068016821F4805101602046FFF7E5FFA4
:1004E00020680168890014D5416B890011D52571F8
:1004F000216941F0020121614FF000514163206800
:10050000016821F0805101602046BDE87040FFF78E
:10051000A8BF70BD70B5040003D02079002510B1CC
:1005200005E0012070BD6571204600F007F802204B
:100530002071256101202071002070BD10B586B0AA
:10054000044614216846FFF724FF154920688842B5
:1005500024D114480021026842F000520260006871
:1005600000F0005005900F481038026842F0010278
:100570000260006800F00100059010200090032048
:10058000CDE901016946084800F04CF80022114607
:10059000362000F0A3F9362000F092F906B010BD25
:1005A00000740040403802400000024018B5046862
:1005B00000940068104421B11430009003600020C2
:1005C00018BD0830F9E770B54279012A1ED0012222
:1005D0004271022303710468266801F0100302FAD5
:1005E00003F52E4326600029016811D00C6804F43D
:1005F00070153C249C40A54203D14B6843F0020394
:100600004B60027100214171084670BD022070BD2F
:100610000B68C3F383030F2BF3D14B6843F0010343
:10062000EEE700002DE9F84FDFF8ACA1002201242D
:100630000AF1040B03254FF00F090BF1040E00BF64
:100640000B6804FA02F63340B34272D10F7907F017
:100650000307012F01D0022F16D187684FEA420805
:1006600005FA08FC27EA0C07D1F80CC00CFA08FCC4
:100670004CEA070CC0F808C04768B7430E79C6F3C8
:10068000001696403E4346600E79F643B6070AD000
:10069000C6684FEA420C05FA0CF7BE438F6807FAAA
:1006A0000CF73743C7600E7906F00306022E10D10F
:1006B000D60800EB8608D8F8206057074FEAD76CB9
:1006C00009FA0CF7BE430F6907FA0CF73743C8F86D
:1006D000207006684FEA420C05FA0CF7BE430F790A
:1006E00007F0030707FA0CF7374307604E68F60078
:1006F0006BD53A4E376847F480473760366822F04A
:10070000030706F480460096354E07EB060CDCF82E
:10071000086897074FEA177809FA08F7BE43314F80
:10072000B84201D100271FE02F4FB84202D1012764
:100730001AE04AE02D4FB84201D1022714E02C4FB5
:10074000B84201D103270FE02A4FB84201D1042754
:100750000AE0294FB84201D1052705E0274FB842EA
:1007600001D1062700E0072707FA08F73743CCF83E
:100770000878DAF800605746D1F804C09E435FEA73
:10078000CC3C00D51E433E60DBF800605F46D1F8EC
:1007900004C09E435FEA8C3C00D51E433E60DEF8F9
:1007A00000607746D1F804C09E435FEACC2C00D5A8
:1007B0001E433E60084F0C373E68D1F804C09E438C
:1007C0005FEA8C2C00D51E433E60521C102AFFF4B9
:1007D00037AFBDE8F88F0000003C014044380240CC
:1007E00000300140000002400004024000080240C6
:1007F000000C0240001002400014024000180240A9
:100800000148806870470000280000200248816885
:100810000278114481607047280000200B4810B511
:10082000016841F400710160016841F48061016078
:10083000016841F480710160032000F06FF80F201F
:1008400000F006F800F024F8002010BD003C024043
:1008500070B50D4D04464FF47A712878B1FBF0F075
:100860000A490968B1FBF0F000F01CFB48B9102CF4
:1008700007D200222146501E00F030F800206C60A4
:1008800070BD012070BD0000280000203400002051
:100890000A4808B5016841F480410160006800F42D
:1008A000804000900548001F016841F080510160C0
:1008B000006800F08050009008BD000044380240FD
:1008C000002809DB00F01F0201219140400980004F
:1008D00000F1E020C0F8001170470000F0B40E4BAA
:1008E0001B680C46C3F30223C3F10705042D00D98E
:1008F0000425191D072901D2002300E0DB1E012673
:1009000006FA05F1491E214099409E40761E164088
:100910003143F0BC00F09FBD0CED00E0064900F053
:10092000070208684FF6FF03184040EA0220034A16
:1009300010430860704700000CED00E00000FA056D
:100940002DE9F0470E46050065D0DFF81481D8F890
:100950000000F7B200F00F00B04207D288F8007034
:10096000D8F8000000F00F00B04254D128683D4C88
:10097000810712D5400703D5206840F4E05020607D
:100980002878000703D5206840F460402060206884
:10099000A96820F0F000084320602878C0072DD017
:1009A000304968680839012812D0022813D003287A
:1009B00011D00968890700292DDA216821F0030187
:1009C00001432160FFF71CFF814641F2883A0EE0A7
:1009D00009688903EFE709688901ECE7FFF710FF71
:1009E000A0EB0901514502D90320BDE8F08720683A
:1009F000696800F00C00B0EB810FEFD1D8F800105F
:100A0000404601F00F01B14207D90770006800F0BD
:100A10000F00B04201D00120E7E72878400705D554
:100A20002068E96820F4E050084320602878000737
:100A300006D52068296920F4604040EAC1002060A2
:100A400000F018F82168084AC1F30311515CC8404E
:100A50000649086006480068FFF7FAFE0020C4E770
:100A6000003C024008380240AE1400083400002068
:100A70002C000020224810B5006810F00C0221481C
:100A800015D02149042A11D01D4C241F082A0FD04B
:100A90000C2A0CD12268236802F03F025B0221D5A8
:100AA0002068C0F38810A0FB010120E0084610BDBB
:100AB0002268236802F03F025B0205D52068C0F37C
:100AC0008810A0FB010104E02168C1F38811A1FB9B
:100AD00000010023FFF7E6FB2168C1F30141491C37
:100AE00049000AE02168C1F38811A1FB000100233D
:100AF000FFF7D8FB2168C1F30271B0FBF1F010BD24
:100B0000083802400024F40040787D012DE9F84FB8
:100B100004007DD0DFF878B32078ABF10407C0077C
:100B2000A7F1040550D0DBF800105846C1F381014D
:100B300001290FD00168C1F38101022902D139686E
:100B4000490207D40068C0F38100032809D138683E
:100B5000400206D52868800336D560680028D8D0C2
:100B600032E06068B0F5803F10D0B0F5A02F286863
:100B700010D020F480302860286820F4802028607D
:100B80006068A0B1FFF73CFE06460CE0286840F420
:100B90008030F4E740F480202860F7E7FFF730FE6C
:100BA000801B642876D828688003F7D50CE0FFF70F
:100BB00027FE064605E000BFFFF722FE801B6428E3
:100BC000F0D828688003F7D42078DFF8C89280072F
:100BD0004FF0000A44D5DBF80010584611F00C0F16
:100BE0000FD00168C1F38101022902D1396849029D
:100BF00007D50068C0F3810003280AD13868400295
:100C000007D42868800715D5E068012800D111E0D5
:100C10003AE1E068B0B10120C9F80000FFF7F0FD4B
:100C2000064604E0FFF7ECFD801B0228BAD82868CE
:100C30008007F7D52868216920F0F80040EAC10054
:100C400028600DE0C9F800A0FFF7DAFD064604E0D1
:100C5000FFF7D6FD801B02281CD828688007F7D430
:100C60002078000727D5DFF828828B48616908F1D2
:100C70006C0881B101210160FFF7C2FD064604E066
:100C8000FFF7BEFD801B022804D8D8F800008007BB
:100C9000F6D510E089E0C0F800A0FFF7B1FD0646E8
:100CA00005E000BFFFF7ACFD801B02287DD8D8F817
:100CB00000008007F6D42078400769D574484FF0CB
:100CC000000838300068C0000BD471483830016823
:100CD00041F08051016000684FF0010800F0805041
:100CE00000906E4E3068C00511D4306840F48070BA
:100CF0003060FFF785FD009006E000BFFFF780FD44
:100D00000099401A022850D83068C005F6D5604EC8
:100D1000A068683601280FD00528306810D020F070
:100D200001003060306820F004003060A068B8B185
:100D3000FFF766FD00900FE0306840F00100F4E737
:100D400040F004003060F7E7FFF75AFD0099411AC0
:100D500041F28830814264D830688007F4D50EE0D3
:100D6000FFF74EFD009007E0FFF74AFD0099411A9A
:100D700041F28830814254D830688007F4D4B8F109
:100D8000000F05D042483830016821F080510160E1
:100D9000A069A8B3DBF80010C1F38101022947D094
:100DA0000228C9F860A005D000E03AE0FFF728FD6E
:100DB000044639E0FFF724FD064604E0FFF720FD76
:100DC000801B02282DD828688001F7D4F4E9070198
:100DD0000843E168324A490802EB0141A26841EA4E
:100DE00082110843217C40EA0160217D40EA0170C4
:100DF00038600120C9F86000FFF702FD044606E0F4
:100E000044E000BFFFF7FCFC001B022809D828685B
:100E10008001F7D53AE000BFFFF7F2FC001B022883
:100E200002D90320BDE8F88F28688001F4D42DE0B2
:100E30000128F7D03868E26900F48001914223D19B
:100E4000226A00F03F0191421ED147F6C071626AEA
:100E50000140B1EB821F17D1A26A4FF0FF3300F4BB
:100E6000403103EB5202B1EB024F0DD194F82C202C
:100E700000F07061B1EB026F06D194F8301000F011
:100E8000E040B0EB017F01D00120CBE70020C9E7B3
:100E90000838024000004742800E47420070004080
:100EA0000000FFFF10B5401EB0F1807F01D301208C
:100EB00010BD4FF0E02460610F21601700F0CBFA05
:100EC0000020A06107202061002010BD70477047FE
:100ED00070B590F83C20012A32D0012480F83C40C3
:100EE000022280F83D2003685A689D6822F070064F
:100EF0000A6832435A60134B02689A4214D0B2F126
:100F0000804F11D0104B9A420ED0104B9A420BD00A
:100F10000F4B9A4208D00F4B9A4205D00E4B9A4283
:100F200002D00E4B9A4204D1496825F08003194340
:100F3000916080F83D40002180F83C10084670BD6B
:100F4000022070BD00000140000400400008004085
:100F5000000C004000040140004001400018004027
:100F600010B5040003D094F83D0010B107E0012053
:100F700010BD002084F83C00204600F01FF802203D
:100F800084F83D00211D206800F000FA012084F85B
:100F9000460084F83E0084F83F0084F8400084F85E
:100FA000410084F8420084F8430084F8440084F847
:100FB000450084F83D00002010BD000008B5006821
:100FC0000B49884212D10B48016841F010010160C1
:100FD0000068002200F01000009011463620FFF754
:100FE0007DFCBDE808403620FFF76ABC08BD000064
:100FF000001000404038024090F83D10012901D017
:1010000001207047022180F83D100168CA6842F053
:101010000102CA6000681149884214D0B0F1804FC3
:1010200011D00F4988420ED00E4988420BD00E498C
:10103000884208D00D49884205D00D49884202D027
:101040000C49884204D1816801F00701062903D0C8
:10105000016841F00101016000207047000001407B
:101060000004004000080040000C00400004014063
:101070000040014000180040704770B50446006809
:1010800001694FF00005C943890715D4C168C943F8
:10109000890711D4E91E0161012020772068806949
:1010A0008007204602D0FFF7E7FF04E000F098F841
:1010B000204600F096F8257720680169C943490762
:1010C00017D4C168C943490713D46FF00401016103
:1010D000022020772068806910F4407F204602D0EB
:1010E000FFF7CAFF04E000F07BF8204600F079F833
:1010F000257720680169C943090716D4C168C94327
:10110000090712D46FF008010161042020772068DC
:10111000C0698007204602D0FFF7AEFF04E000F070
:101120005FF8204600F05DF8257720680169C94323
:10113000C90617D4C168C943C90613D46FF010019A
:101140000161082020772068C06910F4407F2046A4
:1011500002D0FFF791FF04E000F042F8204600F0D3
:1011600040F8257720680169C943C90708D1C168DB
:10117000C943C90704D1891E0161204600F032F835
:1011800020680169C943090609D4C168C943090631
:1011900005D46FF0800101612046FFF797FE2068BB
:1011A0000169C943490609D4C168C943490605D440
:1011B0006FF040010161204600F030F820680169BD
:1011C000C94389060BD4C168C943890607D46FF0A7
:1011D000200101612046BDE87040FFF778BE70BD78
:1011E0007047704710B500210A48FFF7ECF90A482C
:1011F0000022A0F10804216850F82130114605486A
:10120000FFF7D4F92068401C2060072801D3002094
:10121000206010BD38000020080000207047FEE765
:101220001CB500240C4900940A4801940860084643
:10123000FFF770F908B1FFF712F90420CDE90004B7
:10124000002269460448FFF70DF9002801D0FFF796
:1012500006F91CBD0074004038000020054808B5A0
:10126000016841F001010160006800F00100009098
:1012700008BD0000303802401CB500240E48009420
:101280000C49019401601221C0E901148461C1601C
:10129000FFF766FE08B1FFF7E2F82020CDE9000471
:1012A00069460548FFF714FE002801D0FFF7D7F87C
:1012B0001CBD0000001000404C000020FEE7FEE7CF
:1012C00070477047FFF7A2BA30B593B03421684633
:1012D000FFF75FF814210DA8FFF75BF81E48002503
:1012E000016841F080510160006800F08050129068
:1012F0001A48016821F4404141F4804101600068CE
:10130000022400F440401290012003901020049029
:10131000009406940820CDE907504020CDE9090447
:101320000B9468460C94FFF7F1FB08B172B6FEE728
:101330000F20CDE90D0490200F904FF48050CDE99F
:10134000100500210DA8FFF7FBFA002801D072B6A6
:10135000FEE713B030BD000040380240007000408E
:101360000248016841F470010160704788ED00E0B7
:1013700010B50448FFF79AF8BDE810400248FFF79F
:101380007CBE0000380000204C000020F0B5026850
:10139000254C264D264E274F274B4FF0804CA04220
:1013A00009D0604507D0A84205D0B04203D0B8426A
:1013B00001D0984204D122F0700E4A6842EA0E022F
:1013C000A0421BD0604519D0A84217D0B04215D01A
:1013D000B84213D0984211D0184DA8420ED0184DE3
:1013E000A8420BD0174DA84208D0174DA84205D0EF
:1013F000164DA84202D0164DA84203D122F44075E2
:10140000CA682A434D6922F080022A4302608A6832
:10141000C2620A688262A04201D0984201D1096981
:10142000016301214161F0BD000001400004004062
:1014300000080040000C0040000401400040014052
:10144000004401400048014000180040001C0040DA
:1014500000200040FEE70907090E002804DB00F128
:10146000E02080F80014704700F00F0000F1E02049
:1014700080F8141D70470000FFF7D0F9FFF724FF34
:10148000FFF7ECFEFFF7CCFEFFF7F6FE0348FFF791
:10149000B3FD034840F6FF714160FDE74C000020BA
:1014A000000000204FF04070E1EE100A704700008D
:1014B0000000000000000102030406070809000004
:1014C000E0140008000000203800000000020008BE
:1014D0001815000838000020C00600001C02000893
:1014E00000000000000000007E0E00007F0E0000E3
:1014F000800E0000810E00000000000001000000CE
:1015000002000000030000000100000010000000C5
:08151000000000000024F400BB
:04000005080001C529
:00000001FF
