:020000040800F2
:100000006806002049020008510200085302000857
:1000100055020008570200085902000800000000BD
:100020000000000000000000000000005B0200086B
:100030005D020008000000005F0200086102000885
:1000400063020008630200086302000863020008FC
:1000500063020008630200086302000863020008EC
:1000600063020008630200086302000863020008DC
:100070006302000805030008630200086302000829
:1000800063020008630200086302000863020008BC
:1000900063020008630200086302000863020008AC
:1000A000630200086302000863020008630200089C
:1000B000630200086302000863020008630200088C
:1000C000630200086302000863020008630200087C
:1000D000630200086302000863020008630200086C
:1000E000630200086302000863020008630200085C
:1000F000630200086302000863020008630200084C
:10010000630200086302000863020008630200083B
:10011000630200086302000863020008630200082B
:10012000630200086302000863020008630200081B
:1001300063020008000000000000000063020008E5
:1001400063020008630200086302000863020008FB
:1001500063020008630200086302000863020008EB
:1001600063020008630200086302000863020008DB
:100170006302000863020008630200080000000038
:100180000000000063020008000000000000000002
:100190006302000800000000000000006302000885
:1001A00000000000000000000000000063020008E2
:1001B000630200086302000863020008630200088B
:1001C0006302000800F002F800F02EF80AA090E8A0
:1001D000000C82448344AAF10107DA4501D100F002
:1001E00023F8AFF2090EBAE80F0013F0010F18BFA1
:1001F000FB1A43F00103184760040000700400007C
:100200000023002400250026103A28BF78C1FBD81F
:10021000520728BF30C148BF0B6070471FB500F0C0
:100220000DFA1FBD10B510BD00F031F81146FFF7F3
:10023000F5FF00F0E7F900F04FF803B4FFF7F2FF25
:1002400003BC00F057F80000094880470948004700
:10025000FEE7FEE7FEE7FEE7FEE7FEE7FEE7FEE776
:10026000FEE7FEE704480549054A064B70470000D3
:10027000D1040008C50100086800002068060020BD
:10028000680200206802002070477047704775467A
:1002900000F02CF8AE4605006946534620F00700F2
:1002A000854618B020B5FFF7DDFFBDE820404FF0D0
:1002B00000064FF000074FF000084FF0000BAC466F
:1002C000ACE8C009ACE8C009ACE8C009ACE8C009BA
:1002D00021F007018D46704710B50446AFF300804A
:1002E0002046BDE81040FFF7A8BF00000048704757
:1002F0000000002001491820ABBEFEE726000200E6
:100300007047000080B546F20000C4F202000068A9
:100310008002002811D5FFE740F26000C2F2000021
:100320000078303800F06AF846F20801C4F20201A1
:10033000086840F400100860FFE780BD80B584B015
:10034000039002918DF807209DF8070046F24401C2
:10035000C4F202010860039846F24801C4F20201A7
:100360000860029846F24C01C4F20201086046F2AD
:100370000801C4F20201086840F40010086046F267
:100380004001C4F202010091086840F010000860CA
:100390000D2000F0E9F80099086840F001000860BD
:1003A00004B080BD43F63001C4F20201086840F495
:1003B0000010086046F24001C4F20201086820F013
:1003C000C0000860086840F480700860086820F485
:1003D00000700860086840F480600860086820F4D5
:1003E000F040086046F24402C4F2020201201060AC
:1003F000086840F0006008607047000080B584B075
:10040000039000200290FFE702980399013188428F
:1004100019DAFFE71421C4F202010091086820F004
:1004200020000860C820019000F0B6F8009A0198FA
:10043000116841F02001116000F0AEF8FFE702986A
:1004400001300290E0E740F26001C2F200010020BA
:10045000087004B080BD000080B543F63001C4F2DE
:100460000201086840F004000860086840F00100DC
:1004700008600021C4F20201086840F4806008604E
:1004800040F60001C4F20201086820F47000086020
:10049000086840F42000086040F60401C4F202013C
:1004A000086820F44060086040F60C01C4F20201C4
:1004B000086820F47000086040F62401C4F20201CC
:1004C000086840F40840086000F012F880BD0000A1
:1004D0004EF68851CEF20001086840F470000860C2
:1004E0004EF60851CEF200014FF0006008607047F0
:1004F00043F64001C4F20201086840F4002008609D
:1005000044F60C41C4F20001086820F40050086071
:10051000086820F48050086044F61042C4F20002DB
:10052000106820F440501060086820F40040086013
:1005300044F60842C4F2000240F28360106008688A
:1005400040F008000860086840F00400086008688F
:1005500040F40050086044F61441C4F200010868F9
:1005600040F040000860704781B08DF803009DF9AD
:10057000030000280ED4FFE79DF9031001F01F02CD
:10058000012090404A094EF20011CEF2000141F8DC
:100590002200FFE701B0704782B001904EF21401D3
:1005A000CEF2000143F67F6008604EF21801CEF2F1
:1005B0000001002008604EF21002CEF20002116825
:1005C00041F0050111600090FFE700980199884211
:1005D00010DAFFE7FFE74EF21000CEF200000068ED
:1005E000C003002801D4FFE7F5E7FFE700980130DA
:1005F0000090EAE74EF21001CEF200010020086000
:1006000002B0704780B582B000200190FFF724FF50
:10061000FFF7C8FE40F26001C2F2000144F6044058
:10062000C4F200000122FFF789FEFFE71421C4F2A3
:100630000201086840F020000860F7E7F1EE100AB8
:100640004FF6FF71C0F2C03120EA010040F0407067
:10065000E1EE100A70470000680600080000002064
:0806600068060000000200081A
:04000005080001C529
:00000001FF
