:020000040800F2
:1000000070060020650200086D0200086F020008FB
:100010007102000873020008750200080000000069
:10002000000000000000000000000000770200084F
:1000300079020008000000007B0200087D02000831
:100040007F0200087F0200087F0200087F0200088C
:100050007F0200087F0200087F0200087F0200087C
:100060007F0200087F0200087F0200087F0200086C
:100070007F0200087F0200087F0200087F0200085C
:100080007F0200087F0200087F0200087F0200084C
:100090007F0200087F0200087F0200087F0200083C
:1000A0007F0200087F0200087F0200087F0200082C
:1000B0007F0200087F0200087F0200087F0200081C
:1000C0007F0200087F0200087F0200087F0200080C
:1000D0007F0200087F0200087F0200087F020008FC
:1000E0007F0200087F0200087F0200087F020008EC
:1000F0007F0200087F0200087F0200087F020008DC
:100100007F0200087F0200087F0200087F020008CB
:100110007F0200087F0200087F0200087F020008BB
:100120007F0200087F0200087F0200087F020008AB
:100130007F02000800000000000000007F020008AD
:100140007F0200087F0200087F0200087F0200088B
:100150007F0200087F0200087F0200087F0200087B
:100160007F0200087F0200087F0200087F0200086B
:100170007F0200087F0200087F02000800000000E4
:10018000000000007F0200080000000000000000E6
:100190007F02000800000000000000007F0200084D
:1001A0000000000000000000000000007F020008C6
:1001B0007F0200087F0200087F0200087F0200081B
:1001C0007F02000800F002F800F03CF80AA090E876
:1001D000000C82448344AAF10107DA4501D100F002
:1001E00031F8AFF2090EBAE80F0013F0010F18BF93
:1001F000FB1A43F0010318474402000064020000A8
:10020000103A24BF78C878C1FAD8520724BF30C842
:1002100030C144BF04680C60704700000023002414
:1002200000250026103A28BF78C1FBD8520728BF06
:1002300030C148BF0B6070471FB500F0F1F81FBD1B
:1002400010B510BD00F031F81146FFF7F5FF00F0D2
:10025000D7F800F04FF803B4FFF7F2FF03BC00F04B
:1002600057F800000948804709480047FEE7FEE7C5
:10027000FEE7FEE7FEE7FEE7FEE7FEE7FEE7FEE756
:1002800004480549054A064B704700002103000851
:10029000C5010008700000207006002070020020D8
:1002A00070020020704770477047754600F02CF8C8
:1002B000AE4605006946534620F00700854618B053
:1002C00020B5FFF7DDFFBDE820404FF000064FF0FE
:1002D00000074FF000084FF0000BAC46ACE8C00937
:1002E000ACE8C009ACE8C009ACE8C00921F00701DE
:1002F0008D46704710B50446AFF300802046BDE838
:100300001040FFF7A8BF0000004870471000002011
:1003100001491820ABBEFEE726000200704700002E
:100320004EF68850CEF20000016841F47001016081
:100330004FF0006140F8801C7047000080B543F624
:100340003000C4F20200016841F00101016001695E
:1003500041F4003101610020C4F20200016821F083
:10036000C0010160016841F080010160016A41F44F
:10037000E0410162416821F008014160816841F07B
:10038000C0018160C16821F0C001C160C16841F055
:100390004001C16044F20040C4F2000000F014F8D3
:1003A00080BD0000002A08BF70474FF0000C00BF5E
:1003B00003689B06FCD5436801F80C300CF1010C76
:1003C0009445F5D170470000C16821F40051C16027
:1003D000C16821F48051C160016921F4405101617B
:1003E000C16821F40041C16040F283618160C1684D
:1003F00041F00401C160C16841F40051C16070471F
:10040000FFF79CFF40F2000444F20045C2F20004F2
:10041000C4F20005284621460D22FFF7C3FFF9E785
:10042000F1EE100A4FF6FF71C0F2C03120EA010070
:1004300040F04070E1EE100A7047000060040008D0
:1004400000000020100000000002000870040008F6
:1004500010000020600600001C02000800000000E0
:1004600048656C6C6F205553415254322000000097
:04000005080001C529
:00000001FF
