:020000040800F2
:1000000070060020650200086D0200086F020008FB
:100010007102000873020008750200080000000069
:10002000000000000000000000000000770200084F
:1000300079020008000000007B0200087D02000831
:100040007F0200087F0200087F0200087F0200088C
:100050007F0200087F0200087F0200087F0200087C
:100060007F0200087F0200087F0200087F0200086C
:100070007F0200087F0200087F0200087F0200085C
:100080007F0200087F0200087F0200087F0200084C
:100090007F0200087F0200087F0200087F0200083C
:1000A0007F0200087F0200087F0200087F0200082C
:1000B0007F0200087F0200087F0200087F0200081C
:1000C0007F0200087F0200087F0200087F0200080C
:1000D0007F0200087F0200087F0200087F020008FC
:1000E0007F0200087F0200087F0200087F020008EC
:1000F0007F0200087F0200087F0200087F020008DC
:100100007F0200087F0200087F0200087F020008CB
:100110007F0200087F0200087F0200087F020008BB
:100120007F0200087F0200087F0200087F020008AB
:100130007F02000800000000000000007F020008AD
:100140007F0200087F0200087F0200087F0200088B
:100150007F0200087F0200087F0200087F0200087B
:100160007F0200087F0200087F0200087F0200086B
:100170007F0200087F0200087F02000800000000E4
:10018000000000007F0200080000000000000000E6
:100190007F02000800000000000000007F0200084D
:1001A0000000000000000000000000007F020008C6
:1001B0007F0200087F0200087F0200087F0200081B
:1001C0007F02000800F002F800F03CF80AA090E876
:1001D000000C82448344AAF10107DA4501D100F002
:1001E00031F8AFF2090EBAE80F0013F0010F18BF93
:1001F000FB1A43F001031847C80B0000E80B00008E
:10020000103A24BF78C878C1FAD8520724BF30C842
:1002100030C144BF04680C60704700000023002414
:1002200000250026103A28BF78C1FBD8520728BF06
:1002300030C148BF0B6070471FB500F09FFD1FBD68
:1002400010B510BD00F031F81146FFF7F5FF00F0D2
:1002500037FD00F04FF803B4FFF7F2FF03BC00F0E6
:1002600057F800000948804709480047FEE7FEE7C5
:10027000FEE7FEE7FEE7FEE7FEE7FEE7FEE7FEE756
:1002800004480549054A064B70470000010B000869
:10029000C5010008700000207006002070020020D8
:1002A00070020020704770477047754600F02CF8C8
:1002B000AE4605006946534620F00700854618B053
:1002C00020B5FFF7DDFFBDE820404FF000064FF0FE
:1002D00000074FF000084FF0000BAC46ACE8C00937
:1002E000ACE8C009ACE8C009ACE8C00921F00701DE
:1002F0008D46704710B50446AFF300802046BDE838
:100300001040FFF7A8BF0000004870470800002019
:1003100001491820ABBEFEE726000200704700002E
:1003200081B042F20801C4F20101086840F0010006
:10033000086042F210700090FFE70098411E0091A3
:1003400008B1FFE7F9E701B07047000043F6440148
:10035000C4F20201086840F48070086043F630017E
:10036000C4F20201086840F0010008600021C4F2F4
:100370000201086840F00C000860086840F4407012
:10038000086042F20431C4F20101086820F44030F0
:100390000860086840F48030086042F20401C4F24A
:1003A0000101086820F040700860086840F480701F
:1003B000086042F20801C4F20101086840F002003E
:1003C0000860086840F480600860086820F40060F5
:1003D000086042F21002C4F20102106847F23803CA
:1003E0009843106042F22C02C4F20102106800F43B
:1003F00070001060106840F480101060086840F4CD
:100400004070086042F23401C4F20101002008602B
:10041000086840F001000860086840F0800008604B
:100420007047000042F20001C4F2010100200860A0
:1004300042F20801C4F20101086840F080400860FF
:100440007047000083B002900191ADF80220BDF822
:10045000020046F21441C4F202010860029846F21A
:100460001841C4F202010860019846F21C41C4F22E
:100470000201086046F21041C4F20201086840F02F
:100480000100086003B0704743F63001C4F2020176
:10049000086840F48000086046F21041C4F202018E
:1004A000086820F0C0000860086840F480700860A8
:1004B000086820F400700860086840F480600860F4
:1004C000086840F42050086046F21442C4F2020268
:1004D00002201060086820F060600860704700002B
:1004E00043F63001C4F20201086840F002000860DF
:1004F000086840F00400086040F20041C4F20201C4
:10050000086820F44C400860086840F4884008609F
:1005100040F60001C4F20201086820F47F40086040
:10052000086840F4AA40086040F20C41C4F202019D
:10053000086820F44C40086040F60C01C4F2020147
:10054000086820F47F4008607047000080B50020F4
:1005500000F072F8012000F06FF880BD80B586B021
:10056000FFF7BEFF142000F06BFB0320019000F0AA
:1005700063F8052000F064FB019800F05DF80120AD
:10058000049000F05DFB019800F056F80220029004
:1005900000F052F8029800F04FF80820039000F0A5
:1005A0004BF80020059000F047F8039800F044F85D
:1005B000059800F041F8049800F03EF8059800F026
:1005C0003BF8062000F038F8059800F035F80C20CC
:1005D00000F032F8FFF7BAFF06B080BD43F63001F5
:1005E000C4F20201086840F0010008600021C4F272
:1005F0000201086820F440600860086840F48060E8
:1006000008600421C4F20201086820F0200008609C
:100610000821C4F20201086820F4406008600868FC
:1006200040F4006008600C21C4F20201086820F464
:10063000406008607047000080B582B0019040F2D1
:100640001441C4F202010091086820F02000086003
:10065000086840F080000860019800F00BF8042062
:1006600000F0EEFA0099086820F08000086002B0FF
:1006700080BD000081B000909DF80000C00748B127
:10068000FFE740F61401C4F20201086840F01000D0
:10069000086008E040F61401C4F20201086820F086
:1006A00010000860FFE79DF800008007002809D5CA
:1006B000FFE740F61401C4F20201086840F0200090
:1006C000086008E040F61401C4F20201086820F056
:1006D00020000860FFE79DF800004007002809D5CA
:1006E000FFE740F61401C4F20201086840F0400040
:1006F000086008E040F61401C4F20201086820F026
:1007000040000860FFE79DF800000007002809D5B9
:10071000FFE740F61401C4F20201086840F08000CF
:10072000086008E040F61401C4F20201086820F0F5
:1007300080000860FFE701B07047000080B582B01C
:100740008DF807008DF806109DF80700012819D1D3
:10075000FFE79DF806007F308DF805009DF8050045
:1007600000098DF804009DF8050000F00F008DF8D9
:1007700003009DF80400FFF75FFF9DF80300FFF7FB
:100780005BFF5CE09DF80700022819D1FFE79DF8A8
:100790000600BF308DF805009DF8050000098DF8B2
:1007A00004009DF8050000F00F008DF803009DF88F
:1007B0000400FFF741FF9DF80300FFF73DFF3DE018
:1007C0009DF80700032819D1FFE79DF80600933034
:1007D0008DF805009DF8050000098DF804009DF8CE
:1007E000050000F00F008DF803009DF80400FFF7EE
:1007F00023FF9DF80300FFF71FFF1EE09DF8070091
:10080000042819D1FFE79DF80600D3308DF80500C4
:100810009DF8050000098DF804009DF8050000F022
:100820000F008DF803009DF80400FFF705FF9DF809
:100830000300FFF701FFFFE7FFE7FFE7FFE702B075
:1008400080BD000080B584B08DF80F009DF80F00CA
:1008500028B1FFE79DF80F00092806DCFFE79DF8A7
:100860000F0030308DF80F00FFE79DF80F0000F00B
:100870000F008DF80E009DF80F0000F0F0008DF8CD
:100880000D0040F21441C4F202010291086840F0E8
:10089000200008609DF80D000009FFF7EBFE0299AB
:1008A000086840F0800008600420019000F0C8F95A
:1008B0000299086820F0800008609DF80E00FFF79C
:1008C000D9FE0198029A116841F08001116000F090
:1008D000B7F90299086820F08000086004B080BD74
:1008E00080B588B00790079820B9FFE70020FFF790
:1008F000A9FFFFE70798092804D8FFE70020FFF7C2
:10090000A1FFFFE7079806900020059001200290C4
:10091000FFE7069868B1FFE706984CF6CD41CCF6A4
:10092000CC41A0FB0110C00806900598013005904D
:10093000EFE700200490FFE70498059988422CD245
:10094000FFE701200390FFE703980599049A891AAD
:1009500088420AD2FFE7029800EB80004000029034
:10096000FFE7039801300390EEE707980299B0FB88
:10097000F1F08DF807009DF80700FFF763FF079A75
:100980000299B2FBF1F000FB1120079001200290C8
:10099000FFE7049801300490CEE708B080BD000066
:1009A00080B582B0019000200090FFE70198009987
:1009B000405C50B1FFE701980099405CFFF742FFAF
:1009C000FFE7009801300090F0E702B080BD000022
:1009D00086B00021059104910220039002910190BC
:1009E00043F60800C4F20200006800F00C00059015
:1009F0000598009040B1FFE7009804280ED0FFE76B
:100A00000098082814D059E040F20001C2F2000119
:100A100042F20040C0F2F400086059E040F20001E8
:100A2000C2F2000147F64000C0F27D1008604FE0BE
:100A300043F60400C4F202000168C1F38051029140
:100A4000006800F03F000190029888B1FFE701992B
:100A500047F64000C0F27D10B0FBF1F043F6040110
:100A6000C4F202010968C1F388114843049010E000
:100A7000019942F20040C0F2F400B0FBF1F043F6FD
:100A80000401C4F202010968C1F3881148430490CB
:100A9000FFE743F60400C4F20200006800F44031AE
:100AA000022000EBD130039004980399B0FBF1F0E1
:100AB00040F20001C2F20001086009E040F20001CA
:100AC000C2F2000142F20040C0F2F4000860FFE709
:100AD00043F60800C4F202000068C0B2010940F603
:100AE0009650C0F60000405C0590059A40F2000167
:100AF000C2F200010868D040086006B070470000EC
:100B00004EF68851CEF20001086840F4700008608B
:100B10004EF60851CEF200014FF0006008607047B9
:100B200080B582B043F60001C4F20201086840F0CB
:100B300001000860FFE743F60000C4F2020000680D
:100B40008007002801D4FFE7F5E743F64001C4F22F
:100B50000201086840F08050086047F20001C4F2CA
:100B60000001086840F44040086043F60041C4F2C8
:100B70000201086840F480700860086820F00F00E7
:100B80000860086840F00300086043F60401C4F2FE
:100B90000201009108680860086820F03F000860C2
:100BA000086840F008000860086847F6C072904383
:100BB0000860086840F4A0500860086820F44030DD
:100BC000086043F60801C4F202010191086820F0B0
:100BD000F0000860086820F4E0500860086840F4FD
:100BE00080500860086820F46040086043F6000107
:100BF000C4F20201086840F080700860FFE743F625
:100C00000000C4F2020000688001002801D4FFE760
:100C1000F5E743F60801C4F20201086840F002005B
:100C20000860FFE743F60800C4F20200006800070E
:100C3000002801D4FFE7F5E7FFF7CAFE02B080BD48
:100C400082B001904EF21401CEF2000143F67F0013
:100C5000C0F2010008604EF21801CEF2000100203F
:100C600008604EF21002CEF2000211684FF6F873DF
:100C7000CFF6FE7319401160116841F00501116053
:100C80000090FFE700980199884210DAFFE7FFE73C
:100C90004EF21000CEF200000068C003002801D41C
:100CA000FFE7F5E7FFE7009801300090EAE74EF232
:100CB0001001CEF200010020086002B07047000071
:100CC00080B586B000200590FFF72AFFFFF786FC6D
:100CD000FFF744FC012003900721FFF72FFD40F6AA
:100CE000B450C0F60000FFF75BFE039902200490A9
:100CF000FFF724FD40F6A650C0F60000FFF750FEB7
:100D000003990320FFF71AFD40F6AD50C0F600002E
:100D1000FFF746FEFFF71AFBFFF702FBFFF7B4FBF6
:100D2000049A40F26801C2F2000142F24C00C4F29F
:100D30000100FFF787FBFFF775FBFFE702200721A4
:100D40000191FFF7FBFC40F26800C2F20000029044
:100D50000088FFF7C5FD01990320FFF7EFFC02981B
:100D60004088FFF7BDFD1421C4F20201086880F03D
:100D7000200008606420FFF763FFDFE7F1EE100A50
:100D80004FF6FF71C0F2C03120EA010040F0407020
:100D9000E1EE100A704700000000000000000102B0
:100DA000030406070809504131202D20005041342A
:100DB000202D2000444D4120544553540000000094
:100DC000E00D0008000000200800000000020008FC
:100DD000E80D000808000020680600001C0200085A
:080DE0000024F40000000000F3
:04000005080001C529
:00000001FF
