:020000040800F2
:100000006806002049020008510200085302000857
:1000100055020008570200085902000800000000BD
:100020000000000000000000000000005B0200086B
:100030005D020008000000005F0200086102000885
:1000400063020008630200086302000863020008FC
:1000500063020008630200086302000863020008EC
:1000600063020008630200086302000863020008DC
:1000700063020008630200086302000863020008CC
:100080000503000863020008630200086302000819
:1000900063020008630200086302000863020008AC
:1000A000630200086302000863020008630200089C
:1000B000630200086302000863020008630200088C
:1000C000630200086302000863020008630200087C
:1000D000630200086302000863020008630200086C
:1000E000630200086302000863020008630200085C
:1000F000630200086302000863020008630200084C
:10010000630200086302000863020008630200083B
:10011000630200086302000863020008630200082B
:10012000630200086302000863020008630200081B
:1001300063020008000000000000000063020008E5
:1001400063020008630200086302000863020008FB
:1001500063020008630200086302000863020008EB
:1001600063020008630200086302000863020008DB
:100170006302000863020008630200080000000038
:100180000000000063020008000000000000000002
:100190006302000800000000000000006302000885
:1001A00000000000000000000000000063020008E2
:1001B000630200086302000863020008630200088B
:1001C0006302000800F002F800F02EF80AA090E8A0
:1001D000000C82448344AAF10107DA4501D100F002
:1001E00023F8AFF2090EBAE80F0013F0010F18BFA1
:1001F000FB1A43F0010318474803000058030000AE
:100200000023002400250026103A28BF78C1FBD81F
:10021000520728BF30C148BF0B6070471FB500F0C0
:1002200082F91FBD10B510BD00F031F81146FFF77F
:10023000F5FF00F067F900F04FF803B4FFF7F2FFA5
:1002400003BC00F057F80000094880470948004700
:10025000FEE7FEE7FEE7FEE7FEE7FEE7FEE7FEE776
:10026000FEE7FEE704480549054A064B70470000D3
:10027000F9030008C5010008680000206806002096
:10028000680200206802002070477047704775467A
:1002900000F02CF8AE4605006946534620F00700F2
:1002A000854618B020B5FFF7DDFFBDE820404FF0D0
:1002B00000064FF000074FF000084FF0000BAC466F
:1002C000ACE8C009ACE8C009ACE8C009ACE8C009BA
:1002D00021F007018D46704710B50446AFF300804A
:1002E0002046BDE81040FFF7A8BF00000048704757
:1002F0000000002001491820ABBEFEE726000200E6
:100300007047000010B546F20C04C4F2020454F821
:10031000080C000558BF10BD40F26000C2F200009A
:100320000078303800F048F8206840F40060206021
:1003300010BD000010B546F28804C4F202046260E9
:10034000A060E16054F87C0C40F4006044F87C0C40
:10035000206840F01000206000F0B0F8206840F005
:100360000100206010BD000043F63000C4F202001E
:10037000016841F40011016046F28800C4F20200F5
:10038000016821F0C0010160016841F480710160E1
:10039000016821F400710160016841F4806101602D
:1003A000016821F4F041016001214160016841F0E0
:1003B0000061016070470000B0B5002814D4142417
:1003C000C4F20204451C00BF206840F020002060F9
:1003D000C82000F07BF8206820F020002060C820B2
:1003E00000F074F8013DEFD140F26000C2F200006D
:1003F00000210170B0BD00004EF68850CEF2000022
:10040000016841F4700101604FF0006140F8801C08
:100410007047000080B543F63000C4F20200016866
:1004200041F001010160016941F4003101610020E6
:10043000C4F20200016841F480610160016821F0AA
:10044000C0010160016841F080010160016A41F46E
:10045000E0410162416821F008014160816841F09A
:10046000C0018160C16821F0C001C16044F2004058
:10047000C4F2000000F002F880BD0000C16821F461
:100480000051C160C16821F48051C160016921F44B
:1004900040510161C16821F40041C16040F28361B3
:1004A0008160C16841F00401C160C16841F400513C
:1004B000C160416941F04001416170474EF2001056
:1004C000CEF200004FF48031016070474EF210010F
:1004D000CEF2000143F67F624FF0000C4A60C1F893
:1004E00008C00B68012843F005030B6006DB0023FE
:1004F0000A68D203FCD501338342F9D1C1F800C0A8
:1005000070470000FFF786FFFFF72EFF40F2600103
:1005100044F20440C2F20001C4F200000122FFF7DD
:1005200009FF00BFFEE7F1EE100A4FF6FF71C0F2BF
:10053000C03120EA010040F04070E1EE100A70473F
:1005400050050008000000206806000000020008B6
:04000005080001C529
:00000001FF
