:020000040800F2
:100000006806002049020008510200085302000857
:1000100055020008570200085902000800000000BD
:100020000000000000000000000000005B0200086B
:100030005D020008000000005F0200086102000885
:1000400063020008630200086302000863020008FC
:1000500063020008630200086302000863020008EC
:1000600063020008630200086302000863020008DC
:1000700063020008630200086302000863020008CC
:1000800063020008630200086302000863020008BC
:1000900063020008630200086302000863020008AC
:1000A000630200086302000863020008630200089C
:1000B000630200086302000863020008630200088C
:1000C000630200086302000863020008630200087C
:1000D000630200086302000863020008630200086C
:1000E000630200086302000863020008630200085C
:1000F000630200086302000863020008630200084C
:10010000630200086302000863020008630200083B
:10011000630200086302000863020008630200082B
:10012000630200086302000863020008630200081B
:1001300063020008000000000000000063020008E5
:1001400063020008630200086302000863020008FB
:1001500063020008630200086302000863020008EB
:1001600063020008630200086302000863020008DB
:100170006302000863020008630200080000000038
:100180000000000063020008000000000000000002
:100190006302000800000000000000006302000885
:1001A00000000000000000000000000063020008E2
:1001B000630200086302000863020008630200088B
:1001C0006302000800F002F800F02EF80AA090E8A0
:1001D000000C82448344AAF10107DA4501D100F002
:1001E00023F8AFF2090EBAE80F0013F0010F18BFA1
:1001F000FB1A43F001031847B0030000C0030000DE
:100200000023002400250026103A28BF78C1FBD81F
:10021000520728BF30C148BF0B6070471FB500F0C0
:10022000B5F91FBD10B510BD00F031F81146FFF74C
:10023000F5FF00F09BF900F04FF803B4FFF7F2FF71
:1002400003BC00F057F80000094880470948004700
:10025000FEE7FEE7FEE7FEE7FEE7FEE7FEE7FEE776
:10026000FEE7FEE704480549054A064B70470000D3
:100270004D050008C5010008680000206806002040
:10028000680200206802002070477047704775467A
:1002900000F02CF8AE4605006946534620F00700F2
:1002A000854618B020B5FFF7DDFFBDE820404FF0D0
:1002B00000064FF000074FF000084FF0000BAC466F
:1002C000ACE8C009ACE8C009ACE8C009ACE8C009BA
:1002D00021F007018D46704710B50446AFF300804A
:1002E0002046BDE81040FFF7A8BF00000048704757
:1002F0000000002001491820ABBEFEE726000200E6
:100300007047000043F63001C4F20201086840F073
:100310000200086043F64001C4F20201086840F49C
:100320000010086040F20041C4F20201086820F4A5
:1003300070200860086840F42020086040F22441E2
:10034000C4F20201086820F0FF000860086840F06D
:100350004400086040F20441C4F20201086840F41D
:100360004070086040F20C41C4F20201086820F4B9
:1003700070200860086840F4A020086045F2004141
:10038000C4F20001086840F400400860086820F4E6
:100390000040086045F20442C4F20002106820F0F8
:1003A0003F001060106840F01000106045F21C42E1
:1003B000C4F20002106840F6FF73984310601068A2
:1003C00040F05000106045F22042C4F20002106874
:1003D00020F03F001060106840F0110010600868C5
:1003E00040F001000860704783B08DF80B008DF875
:1003F0000A10019245F20041C4F20001086840F47D
:1004000000700860FFE745F21840C4F20000006881
:100410008007002801D5FFE7F5E745F20041C4F267
:100420000001086840F480700860FFE745F214405E
:10043000C4F200000068C00708B9FFE7F6E79DF8BE
:100440000B004000C0B245F21041C4F20001086048
:10045000FFE745F21440C4F200000068800700285E
:1004600001D4FFE7F5E745F21840C4F20000006848
:100470000090FFE745F21440C4F200000068000657
:10048000002801D4FFE7F5E79DF80A0045F2104186
:10049000C4F200010860FFE745F21440C4F2000016
:1004A00000680006002801D4FFE7F5E745F20041A7
:1004B000C4F20001086840F480700860FFE745F26C
:1004C0001440C4F200000068C00708B9FFE7F6E76F
:1004D0009DF80B0040000130C0B245F21041C4F25B
:1004E00000010860FFE745F21440C4F20000006814
:1004F0008007002801D4FFE7F5E745F20041C4F288
:100500000001086820F48060086045F21840C4F2D9
:10051000000000680090086840F400700860FFE781
:1005200045F21440C4F2000000684006002801D4DF
:10053000FFE7F5E745F21040C4F2000000680199BA
:100540004A1C0192087003B0704700004EF68851B3
:10055000CEF20001086840F4700008604EF60851C1
:10056000CEF200014FF000600860704780B582B0A5
:1005700000200190FFF7C6FEFFE740F26002C2F2E2
:10058000000268200021FFF72FFFF6E7F1EE100AC6
:100590004FF6FF71C0F2C03120EA010040F0407018
:1005A000E1EE100A70470000B805000800000020C6
:0805B0006806000000020008CB
:04000005080001C529
:00000001FF
