:020000040800F2
:100000007806002049020008510200085302000847
:1000100055020008570200085902000800000000BD
:100020000000000000000000000000005B0200086B
:100030005D020008000000005F0200086102000885
:1000400063020008630200086302000863020008FC
:1000500063020008630200086302000863020008EC
:1000600063020008630200086302000863020008DC
:1000700063020008630200086302000863020008CC
:1000800063020008630200086302000863020008BC
:1000900063020008630200086302000863020008AC
:1000A000630200086302000863020008630200089C
:1000B000630200086302000863020008630200088C
:1000C000630200086302000863020008630200087C
:1000D000630200086302000863020008630200086C
:1000E000630200086302000863020008630200085C
:1000F000630200086302000863020008630200084C
:10010000630200086302000863020008630200083B
:10011000630200086302000863020008630200082B
:10012000630200086302000863020008630200081B
:1001300063020008000000000000000063020008E5
:1001400063020008630200086302000863020008FB
:1001500063020008630200086302000863020008EB
:1001600063020008630200086302000863020008DB
:100170006302000863020008630200080000000038
:100180000000000063020008000000000000000002
:100190006302000800000000000000006302000885
:1001A00000000000000000000000000063020008E2
:1001B000630200086302000863020008630200088B
:1001C0006302000800F002F800F02EF80AA090E8A0
:1001D000000C82448344AAF10107DA4501D100F002
:1001E00023F8AFF2090EBAE80F0013F0010F18BFA1
:1001F000FB1A43F001031847200B0000300B0000EE
:100200000023002400250026103A28BF78C1FBD81F
:10021000520728BF30C148BF0B6070471FB500F0C0
:1002200050FD1FBD10B510BD00F031F81146FFF7AD
:10023000F5FF00F0C1FC00F04FF803B4FFF7F2FF48
:1002400003BC00F057F80000094880470948004700
:10025000FEE7FEE7FEE7FEE7FEE7FEE7FEE7FEE776
:10026000FEE7FEE704480549054A064B70470000D3
:100270001D0B0008C501000878000020780600204A
:10028000780200207802002070477047704775465A
:1002900000F02CF8AE4605006946534620F00700F2
:1002A000854618B020B5FFF7DDFFBDE820404FF0D0
:1002B00000064FF000074FF000084FF0000BAC466F
:1002C000ACE8C009ACE8C009ACE8C009ACE8C009BA
:1002D00021F007018D46704710B50446AFF300804A
:1002E0002046BDE81040FFF7A8BF00000048704757
:1002F0000000002001491820ABBEFEE726000200E6
:100300007047000043F63001C4F20201086840F073
:1003100002000860086840F00400086040F20041F4
:10032000C4F20201086820F44C400860086840F4F8
:100330008840086040F60001C4F20201086820F419
:100340007F400860086840F4AA40086040F20C4111
:10035000C4F20201086820F44C40086040F60C0129
:10036000C4F20201086820F47F4008607047000072
:1003700087B00690059104920393FFE742F60C00C4
:10038000C4F2000000688006002801D4FFE7F5E70A
:1003900042F60400C4F20000006801900198C0F326
:1003A00001108DF80B00019800F00F008DF80A0085
:1003B0009DF80B0000EB80019DF80A0000EB410066
:1003C000069908700198C0F300308DF80B00019871
:1003D000C0F303208DF80A009DF80B0000EB8001AC
:1003E0009DF80A0000EB4100059908700198C0F3E0
:1003F00003508DF80B00BDF8060000F00F008DF8DB
:100400000A009DF80B0000EB80019DF80A0000EB4C
:100410004100049908700198C0F342308DF80B0038
:100420009DF80B00013801460091062837D8009945
:10043000DFE801F0040B121920272E00039940F683
:100440000450C0F60000086029E0039940F6FC4023
:10045000C0F60000086022E0039940F6F840C0F6BC
:10046000000008601BE0039940F60C50C0F6000045
:10047000086014E0039940F60050C0F600000860E0
:100480000DE0039940F61250C0F60000086006E047
:10049000039940F60850C0F600000860FFE742F6F6
:1004A0000C01C4F20001086820F02000086007B0C9
:1004B0007047000086B00590049103920293FFE715
:1004C00042F60C00C4F2000000688006002801D447
:1004D000FFE7F5E742F60000C4F200000068009074
:1004E0009DF802004006002807D5FFE7029940F674
:1004F000F540C0F60000086006E0029940F6F240C0
:10050000C0F600000860FFE70098C0F301508DF8C6
:100510000700BDF8020000F00F008DF806009DF8FE
:10052000070000EB80019DF8060000EB41000599F3
:1005300008700098C0F302308DF807000098C0F3EF
:1005400003208DF806009DF8070000EB80019DF860
:10055000060000EB4100049908700098C0F30210F7
:100560008DF80700009800F00F008DF806009DF848
:10057000070000EB80019DF8060000EB41000399A5
:10058000087042F60C01C4F20001086820F0200057
:10059000086006B07047000080B5002000F044F805
:1005A000012000F041F880BD80B586B0FFF7AAFEBB
:1005B000142000F0C3FA0320019000F035F8052064
:1005C00000F0BCFA019800F02FF80120049000F030
:1005D000B5FA019800F028F80220029000F024F803
:1005E000029800F021F80820039000F01DF8002088
:1005F000059000F019F8039800F016F8059800F03F
:1006000013F8049800F010F8059800F00DF8062093
:1006100000F00AF8059800F007F80C2000F004F844
:10062000FFF7BAFF06B080BD80B582B0019040F2FE
:100630001441C4F202010091086820F02000086013
:10064000086840F080000860019800F00BF8042072
:1006500000F074FA0099086820F08000086002B089
:1006600080BD000081B000909DF80000C00748B137
:10067000FFE740F61401C4F20201086840F01000E0
:10068000086008E040F61401C4F20201086820F096
:1006900010000860FFE79DF800008007002809D5DA
:1006A000FFE740F61401C4F20201086840F02000A0
:1006B000086008E040F61401C4F20201086820F066
:1006C00020000860FFE79DF800004007002809D5DA
:1006D000FFE740F61401C4F20201086840F0400050
:1006E000086008E040F61401C4F20201086820F036
:1006F00040000860FFE79DF800000007002809D5CA
:10070000FFE740F61401C4F20201086840F08000DF
:10071000086008E040F61401C4F20201086820F005
:1007200080000860FFE701B07047000080B582B02C
:100730008DF807008DF806109DF80700012819D1E3
:10074000FFE79DF806007F308DF805009DF8050055
:1007500000098DF804009DF8050000F00F008DF8E9
:1007600003009DF80400FFF75FFF9DF80300FFF70B
:100770005BFF5CE09DF80700022819D1FFE79DF8B8
:100780000600BF308DF805009DF8050000098DF8C2
:1007900004009DF8050000F00F008DF803009DF89F
:1007A0000400FFF741FF9DF80300FFF73DFF3DE028
:1007B0009DF80700032819D1FFE79DF80600933044
:1007C0008DF805009DF8050000098DF804009DF8DE
:1007D000050000F00F008DF803009DF80400FFF7FE
:1007E00023FF9DF80300FFF71FFF1EE09DF80700A1
:1007F000042819D1FFE79DF80600D3308DF80500D5
:100800009DF8050000098DF804009DF8050000F032
:100810000F008DF803009DF80400FFF705FF9DF819
:100820000300FFF701FFFFE7FFE7FFE7FFE702B085
:1008300080BD000080B584B08DF80F009DF80F00DA
:1008400000280BD4FFE79DF80F00092806DCFFE71E
:100850009DF80F0030308DF80F00FFE79DF80F0076
:1008600000F00F008DF80E009DF80F0000F0F00072
:100870008DF80D0040F21441C4F2020102910868A3
:1008800040F0200008609DF80D000009FFF7EAFE27
:100890000299086840F0800008600420019000F090
:1008A0004DF90299086820F0800008609DF80E005C
:1008B000FFF7D8FE0198029A116841F0800111609B
:1008C00000F03CF90299086820F08000086004B04C
:1008D00080BD000080B588B00790079820B9FFE779
:1008E0000020FFF7A7FFFFE70798092804D8FFE7D4
:1008F0000020FFF79FFFFFE7079806900020059074
:1009000001200290FFE7069868B1FFE706984CF6D1
:10091000CD41CCF6CC41A0FB0110C0080690059853
:1009200001300590EFE700200490FFE70498059957
:1009300088422CD2FFE701200390FFE70398059936
:10094000049A891A88420AD2FFE7029800EB8000D5
:1009500040000290FFE7039801300390EEE707980C
:100960000299B0FBF1F08DF807009DF80700FFF742
:1009700061FF079A0299B2FBF1F000FB112007908A
:1009800001200290FFE7049801300490CEE708B000
:1009900080BD000080B582B0019000200090FFE78C
:1009A00001980099405C50B1FFE701980099405CC4
:1009B000FFF740FFFFE7009801300090F0E702B03A
:1009C00080BD000081B043F64001C4F20201086816
:1009D00040F08050086047F20001C4F2000108684E
:1009E00040F480700860FFE747F20000C4F20000A6
:1009F0000068C005002801D4FFE7F5E743F6700161
:100A0000C4F202010091086820F00500086008683F
:100A100040F480300860086820F48030086008687E
:100A200040F001000860FFE743F67000C4F20200E6
:100A300000688007002801D4FFE7F5E743F670015E
:100A4000C4F20201086820F440700860086840F4AD
:100A500080700860086840F40040086001B070478A
:100A600042F62401C4F20001CA2008605320086045
:100A700042F60C01C4F20001086840F080000860F2
:100A8000FFE742F60C00C4F20000006840060028B0
:100A900001D4FFE7F5E743F67001C4F202010868EC
:100AA00020F40040086042F61002C4F20002002068
:100AB0001060106840F4FE001060106840F0FF0005
:100AC000106042F60802C4F20002106840F04000D4
:100AD000106042F60002C4F2000245F63010C0F287
:100AE0001100106042F60402C4F2000249F218102C
:100AF000C0F22100106042F60C02C4F2000210683D
:100B000020F08000106042F62402C4F20002FF20B0
:100B10001060086840F40040086070474EF6885145
:100B2000CEF20001086840F4700008604EF60851EB
:100B3000CEF200014FF000600860704782B0019073
:100B40004EF21401CEF2000143F67F6008604EF2CF
:100B50001801CEF20001002008604EF21002CEF221
:100B6000000211684FF6F873CFF6FE73194011605A
:100B7000116841F0050111600090FFE700980199AC
:100B8000884210DAFFE7FFE74EF21000CEF20000D5
:100B90000068C003002801D4FFE7F5E7FFE70098ED
:100BA00001300090EAE74EF21001CEF20001002081
:100BB000086002B07047000080B58CB000200B9038
:100BC000FFF7F2FC04200321FFF7B0FDFFF7FAFE68
:100BD000FFF746FF40F6DC40C0F60000FFF7DAFE04
:100BE000FFE701200621FFF7A1FD40F26100C2F2FC
:100BF0000000009040F26201C2F20001019140F257
:100C00006402C2F20002039240F26803C2F20003DF
:100C10000493FFF74FFC00980078FFF75BFE3A2043
:100C20000290FFF707FE01980078FFF753FE029845
:100C3000FFF700FE03980078FFF74CFE2020099094
:100C4000FFF7F8FD04980068FFF7A4FE02200421D6
:100C5000FFF76CFD40F26000C2F20000059040F228
:100C60006301C2F20001069140F27002C2F200027A
:100C7000089240F26C03C2F200030A93FFF778FB7C
:100C800005980078FFF726FE2F200790FFF7D2FD8A
:100C900006980078FFF71EFE0798FFF7CBFD40F699
:100CA000EF40C0F60000FFF775FE08980078FFF7E8
:100CB00011FE0998FFF7BEFD0A980068FFF76AFE6B
:100CC0008FE7F1EE100A4FF6FF71C0F2C03120EA53
:100CD000010040F04070E1EE100A7047434C4F4372
:100CE0004B204953205449434B494E472E2E003246
:100CF0003000414D00504D0057656400547565004B
:100D0000467269004D6F6E0053756E0054687572BF
:100D10007300536174000000280D000800000020DB
:080D2000780600000002000843
:04000005080001C529
:00000001FF
