:020000040800F2
:1000000060060020190200082102000823020008EF
:10001000250200082702000829020008000000004D
:100020000000000000000000000000002B0200089B
:100030002D020008000000002F0200083102000815
:1000400033020008330200083302000833020008BC
:1000500033020008330200083302000833020008AC
:10006000330200083302000833020008330200089C
:10007000330200083302000833020008330200088C
:1000800033020008330200083302000800000000B9
:100090000000000000000000000000003302000823
:1000A000330200083302000833020008330200085C
:1000B000330200083302000833020008330200084C
:1000C000330200083302000833020008330200083C
:1000D0003302000833020008330200080000000069
:1000E0003302000833020008330200080000000059
:1000F00000000000000000000000000033020008C3
:100100000000000033020008330200083302000838
:1001100000000000000000000000000000000000DF
:1001200033020008330200083302000833020008DB
:100130003302000800000000000000000000000082
:100140000000000000000000000000003302000872
:1001500033020008330200083302000833020008AB
:100160003302000833020008000000000000000015
:10017000000000000000000000000000000000007F
:100180000000000033020008000000000000000032
:100190003302000800F002F800F02EF80AA090E800
:1001A000000C82448344AAF10107DA4501D100F032
:1001B00023F8AFF2090EBAE80F0013F0010F18BFD1
:1001C000FB1A43F001031847B8030000C8030000FE
:1001D0000023002400250026103A28BF78C1FBD850
:1001E000520728BF30C148BF0B6070471FB500F0F1
:1001F000B9F91FBD10B510BD00F031F81146FFF779
:10020000F5FF00F091F900F04FF803B4FFF7F2FFAB
:1002100003BC00F057F80000094880470948004730
:10022000FEE7FEE7FEE7FEE7FEE7FEE7FEE7FEE7A6
:10023000FEE7FEE704480549054A064B7047000003
:10024000C504000895010008600000206006002039
:1002500060020020600200207047704770477546BA
:1002600000F02CF8AE4605006946534620F0070022
:10027000854618B020B5FFF7DDFFBDE820404FF000
:1002800000064FF000074FF000084FF0000BAC469F
:10029000ACE8C009ACE8C009ACE8C009ACE8C009EA
:1002A00021F007018D46704710B50446AFF300807A
:1002B0002046BDE81040FFF7A8BF00000048704787
:1002C0000000002001491820ABBEFEE72600020016
:1002D0007047000043F63000C4F20200016841F0AC
:1002E00002010160016841F00401016040F2004038
:1002F000C4F20200016821F44C410160016841F43C
:1003000088410160D0F8001421F47F41C0F8001446
:10031000D0F8001441F4AA41C0F80014C16821F4D7
:100320004C41C16040F60C00C4F20200016821F4A7
:100330007F4101607047000080B5002000F03EF86A
:10034000012000F03BF880BD80B5FFF7C3FF14200B
:1003500000F0C6F8032000F031F8052000F0C0F8E6
:10036000032000F02BF8012000F0BAF8032000F081
:1003700025F8022000F022F8022000F01FF80820E3
:1003800000F01CF8002000F019F8082000F016F822
:10039000002000F013F8012000F010F8002000F019
:1003A0000DF8062000F00AF8002000F007F80C20F5
:1003B00000F004F8FFF7C0FF80BD000010B540F268
:1003C0001444C4F20204216821F020012160216854
:1003D00041F08001216000F009F8042000F080F86D
:1003E000206820F08000206010BD000040F614015D
:1003F000C4F202010A68C0F35A0360F304120A60EF
:100400000A6863F345120A600A68C0F3990363F34C
:1004100086120A600A68C0F3D80060F3C7120A6047
:10042000704700000138C0B2032888BF704710B57C
:100430004BF67F72C000CDF2933222FA00F00144F5
:10044000C8B2000901F00F04FFF7B8FF2046FFF71C
:10045000B5FFBDE810407047B0B540F21445C4F296
:1004600002052968044641F0200028602009FFF7B2
:10047000BDFF286840F080002860042000F030F8BC
:10048000286820F08000286004F00F00FFF7AEFF1E
:10049000286840F080002860042000F021F82868D7
:1004A00020F080002860B0BD10B50178002908BF99
:1004B00010BD441EC8B2FFF7CFFFA1780134002958
:1004C000F8D110BD4EF68850CEF20000016841F41C
:1004D000700101604FF0006140F8801C704700001F
:1004E0004EF21001CEF2000143F67F624FF0000C95
:1004F0004A60C1F808C00B684FF6F872CFF6FE727A
:100500001A400A600A68012842F005020A6007DB07
:10051000002300BF0A68D203FCD501338342F9D11E
:10052000C1F800C070470000FFF70EFF08A40CA53B
:1005300001200121FFF776FF2046FFF7B5FF0220DB
:100540000521FFF76FFF2846FFF7AEFFF0E700BF7A
:100550004C4344206261636B20616761696E0000F7
:1005600057544600F1EE100A4FF6FF71C0F2C03149
:1005700020EA010040F04070E1EE100A70470000F0
:10058000900500080000002060060000D00100086F
:040000050800019559
:00000001FF
