:020000040800F2
:1000000090060020350200083D0200083F0200086B
:1000100041020008430200084502000800000000F9
:10002000000000000000000000000000470200087F
:1000300049020008000000004B0200084D020008C1
:100040004F0200084F0200084F0200084F0200084C
:100050004F0200084F0200084F0200084F0200083C
:100060004F0200084F0200084F0200084F0200082C
:100070004F0200084F0200084F0200084F0200081C
:100080004F0200084F0200084F0200080000000065
:100090000000000000000000000000004F02000807
:1000A0004F0200084F0200084F0200084F020008EC
:1000B0003D0400084F0200084F0200084F020008EC
:1000C0004F0200084F0200084F0200084F020008CC
:1000D0004F0200084F0200084F0200080000000015
:1000E0004F0200084F0200084F0200080000000005
:1000F0000000000000000000000000004F020008A7
:10010000000000004F0200084F0200084F020008E4
:1001100000000000000000000000000000000000DF
:100120004F0200084F0200084F0200084F0200086B
:100130004F02000800000000000000000000000066
:100140000000000000000000000000004F02000856
:100150004F0200084F0200084F0200084F0200083B
:100160004F0200084F0200080000000000000000DD
:10017000000000000000000000000000000000007F
:10018000000000004F020008000000000000000016
:100190004F02000800F002F800F03CF80AA090E8D6
:1001A000000C82448344AAF10107DA4501D100F032
:1001B00031F8AFF2090EBAE80F0013F0010F18BFC3
:1001C000FB1A43F001031847C8050000E8050000CA
:1001D000103A24BF78C878C1FAD8520724BF30C873
:1001E00030C144BF04680C60704700000023002445
:1001F00000250026103A28BF78C1FBD8520728BF37
:1002000030C148BF0B6070471FB500F0B3FA1FBD87
:1002100010B510BD00F031F81146FFF7F5FF00F002
:1002200037FA00F04FF803B4FFF7F2FF03BC00F019
:1002300057F800000948804709480047FEE7FEE7F5
:10024000FEE7FEE7FEE7FEE7FEE7FEE7FEE7FEE786
:1002500004480549054A064B704700007D03000825
:1002600095010008900000209006002090020020D8
:1002700090020020704770477047754600F02CF8D8
:10028000AE4605006946534620F00700854618B083
:1002900020B5FFF7DDFFBDE820404FF000064FF02E
:1002A00000074FF000084FF0000BAC46ACE8C00967
:1002B000ACE8C009ACE8C009ACE8C00921F007010E
:1002C0008D46704710B50446AFF300802046BDE868
:1002D0001040FFF7A8BF000000487047180000203A
:1002E00001491820ABBEFEE726000200704700005F
:1002F00043F63001C4F20201086840F001000860D2
:100300000021C4F20201086820F0030008600868B8
:1003100020F440600860086840F002000860086847
:1003200040F4006008602021C4F20201086820F057
:100330000F000860086840F002000860086820F4B8
:1003400070000860086840F4801008600821C4F25A
:100350000201086840F003000860086840F440604B
:1003600008600C21C4F20201086820F00300086054
:10037000086820F440600860704700004EF688511D
:10038000CEF20001086840F4700008604EF6085193
:10039000CEF200014FF000600860704780B582B077
:1003A00072B643F64001C4F20201086840F0010051
:1003B00008602821C4F200010F2008602C21C4F23B
:1003C00000014FF6FF7008601821C4F200010868B0
:1003D00020F003000860086840F001000860086829
:1003E00020F0F00008602021C4F20001086840F00D
:1003F0000A0008600C22C4F20002106840F00100FC
:100400001060106840F002001060106840F4007046
:100410001060086840F0010008604FF080410868F3
:1004200040F00100086062B61C200190002100F03D
:10043000D1F8019800F0B6F802B080BD81B010206C
:10044000C4F2000000688007002840D5FFE7342090
:10045000C4F200000068009040F28800C2F2000080
:100460000168C1F101010160006848BBFFE7009825
:1004700040F27C01C2F200010968411A40F2840096
:10048000C2F200000160006840F28001C2F2000187
:100490000A6800EB024240F28C00C2F200000260E7
:1004A00000684CF60932C8F63D52A0FB0220400914
:1004B00040F27802C2F20002106000200860FFE7FC
:1004C000009840F27C01C2F200010860FFE71020B2
:1004D000C4F200000068C00778B1FFE740F2800175
:1004E000C2F200010868013008601021C4F2000166
:1004F000086820F001000860FFE701B070470000C5
:1005000043F64001C4F20201086840F008000860A8
:1005100040F60043C4F20003186820F01000186091
:1005200040F62841C4F20001086840F00F0008605E
:1005300040F62C41C4F200014FF6FF70086040F60F
:100540003441C4F200010A20086040F62041C4F2A0
:100550000001086820F002000860086820F0080028
:10056000086040F61842C4F20002106840F06000D3
:100570001060106840F008001060186840F08000BB
:10058000186040F61443C4F20003186840F00100FC
:100590001860106820F003001060086840F0010047
:1005A0000860704781B08DF803009DF903000028B2
:1005B0000ED4FFE79DF9031001F01F0201209040C7
:1005C0004A094EF20011CEF2000141F82200FFE785
:1005D00001B0704782B08DF8070000919DF90700C7
:1005E00000280AD4FFE7009800019DF907104EF299
:1005F0000042CEF2000288540BE0009800019DF802
:10060000071001F00F014EF61452CEF2000288548A
:10061000FFE702B07047000082B001904EF2140173
:10062000CEF200010F2008604EF21801CEF2000158
:10063000002008604EF21002CEF2000211684FF660
:10064000F873CFF6FE7319401160116841F005018F
:1006500011600090FFE700980199884210D2FFE7EF
:10066000FFE74EF21000CEF200000068C003002841
:1006700001D4FFE7F5E7FFE7009801300090EAE7D3
:100680004EF21001CEF200010020086002B0704767
:1006900080B582B000200190FFF72AFE43F63001BA
:1006A000C4F20201086840F002000860086840F0E7
:1006B0000400086040F20041C4F2020141F25550CA
:1006C000086040F60001C4F202010860FFF718FF5D
:1006D000FFF764FEFFE700F02DF840F27800C2F269
:1006E000000002684CF6CD41CCF6CC41A2FB0132B1
:1006F000D30840F20002C2F20002D25C40F214437E
:10070000C4F202031A600068A0FB0121C90801EBD2
:100710008101A0EB410140F20A00C2F20000405CFE
:1007200040F61401C4F20201086041F28830FFF77C
:1007300073FFD0E772B640F62441C4F200010020F6
:10074000086040F60041C4F20001086840F0010072
:100750000860FFE740F62440C4F20000006840F65D
:100760002C41C4F200010968884201D8FFE7F1E793
:1007700062B67047F1EE100A4FF6FF71C0F2C03159
:1007800020EA010040F04070E1EE100A70470000DE
:10079000B00700080000002018000000D001000889
:1007A000C80700081800002078060000EC010008C7
:1007B0003F065B4F666D7D077F6F3F065B4F666D43
:0807C0007D077F6F00000000BF
:040000050800019559
:00000001FF
