:020000040800F2
:100000006806002049020008510200085302000857
:1000100055020008570200085902000800000000BD
:100020000000000000000000000000005B0200086B
:100030005D020008000000005F0200086102000885
:1000400063020008630200086302000863020008FC
:1000500063020008630200086302000863020008EC
:1000600063020008630200086302000863020008DC
:1000700063020008630200086302000863020008CC
:1000800063020008630200086302000863020008BC
:1000900063020008630200086302000863020008AC
:1000A000630200086302000863020008630200089C
:1000B000630200086302000863020008630200088C
:1000C000630200086302000863020008630200087C
:1000D000630200086302000863020008630200086C
:1000E000630200086302000863020008630200085C
:1000F000630200086302000863020008630200084C
:10010000630200086302000863020008630200083B
:10011000630200086302000863020008630200082B
:10012000630200086302000863020008630200081B
:1001300063020008000000000000000063020008E5
:1001400063020008630200086302000863020008FB
:1001500063020008630200086302000863020008EB
:1001600063020008630200086302000863020008DB
:100170006302000863020008630200080000000038
:100180000000000063020008000000000000000002
:100190006302000800000000000000006302000885
:1001A00000000000000000000000000063020008E2
:1001B000630200086302000863020008630200088B
:1001C0006302000800F002F800F02EF80AA090E8A0
:1001D000000C82448344AAF10107DA4501D100F002
:1001E00023F8AFF2090EBAE80F0013F0010F18BFA1
:1001F000FB1A43F0010318471C0200002C02000008
:100200000023002400250026103A28BF78C1FBD81F
:10021000520728BF30C148BF0B6070471FB500F0C0
:10022000EBF81FBD10B510BD00F031F81146FFF717
:10023000F5FF00F0A7F800F04FF803B4FFF7F2FF66
:1002400003BC00F057F80000094880470948004700
:10025000FEE7FEE7FEE7FEE7FEE7FEE7FEE7FEE776
:10026000FEE7FEE704480549054A064B70470000D3
:1002700065030008C501000868000020680600202A
:10028000680200206802002070477047704775467A
:1002900000F02CF8AE4605006946534620F00700F2
:1002A000854618B020B5FFF7DDFFBDE820404FF0D0
:1002B00000064FF000074FF000084FF0000BAC466F
:1002C000ACE8C009ACE8C009ACE8C009ACE8C009BA
:1002D00021F007018D46704710B50446AFF300804A
:1002E0002046BDE81040FFF7A8BF00000048704757
:1002F0000000002001491820ABBEFEE726000200E6
:100300007047000043F63001C4F20201086840F073
:10031000010008600021C4F20201086840F4407046
:10032000086043F64001C4F20201086840F0005042
:10033000086047F20041C4F20001086820F0011093
:100340000860086840F004000860086840F0280071
:100350000860086820F002000860086840F00100AA
:10036000086070474EF68851CEF20001086840F4EC
:10037000700008604EF60851CEF200014FF00060A8
:100380000860704780B582B000200190FFF7BAFF87
:10039000FFE740F26400C2F20000006847F2084143
:1003A000C4F20001086047F20441C4F20001086889
:1003B00040F00100086040F26001C2F2000100203C
:1003C0000860FFE740F26000C2F2000000680A28FF
:1003D00009D8FFE7FFE740F26001C2F200010868B8
:1003E00001300860EEE740F26401C2F200010868E3
:1003F0000130C0B20860CCE7F1EE100A4FF6FF7191
:10040000C0F2C03120EA010040F04070E1EE100A75
:100410007047000024040008000000206806000067
:0404200000020008CE
:04000005080001C529
:00000001FF
