:020000040800F2
:100000006806002049020008510200085302000857
:1000100055020008570200085902000800000000BD
:100020000000000000000000000000005B0200086B
:100030005D020008000000005F0200086102000885
:1000400063020008630200086302000863020008FC
:1000500063020008630200086302000863020008EC
:1000600063020008630200086302000863020008DC
:1000700063020008630200086302000863020008CC
:1000800063020008630200086302000863020008BC
:1000900063020008630200086302000863020008AC
:1000A000630200086302000863020008630200089C
:1000B000630200086302000863020008630200088C
:1000C000630200086302000863020008630200087C
:1000D000630200086302000863020008630200086C
:1000E000630200086302000863020008630200085C
:1000F000630200086302000863020008630200084C
:10010000630200086302000863020008630200083B
:10011000630200086302000863020008630200082B
:10012000630200086302000863020008630200081B
:1001300063020008000000000000000063020008E5
:1001400063020008630200086302000863020008FB
:1001500063020008630200086302000863020008EB
:1001600063020008630200086302000863020008DB
:100170006302000863020008630200080000000038
:100180000000000063020008000000000000000002
:100190006302000800000000000000006302000885
:1001A00000000000000000000000000063020008E2
:1001B000630200086302000863020008630200088B
:1001C0006302000800F002F800F02EF80AA090E8A0
:1001D000000C82448344AAF10107DA4501D100F002
:1001E00023F8AFF2090EBAE80F0013F0010F18BFA1
:1001F000FB1A43F001031847700700008007000056
:100200000023002400250026103A28BF78C1FBD81F
:10021000520728BF30C148BF0B6070471FB500F0C0
:100220008EFB1FBD10B510BD00F031F81146FFF771
:10023000F5FF00F05DFB00F04FF803B4FFF7F2FFAD
:1002400003BC00F057F80000094880470948004700
:10025000FEE7FEE7FEE7FEE7FEE7FEE7FEE7FEE776
:10026000FEE7FEE704480549054A064B70470000D3
:1002700049070008C5010008680000206806002042
:10028000680200206802002070477047704775467A
:1002900000F02CF8AE4605006946534620F00700F2
:1002A000854618B020B5FFF7DDFFBDE820404FF0D0
:1002B00000064FF000074FF000084FF0000BAC466F
:1002C000ACE8C009ACE8C009ACE8C009ACE8C009BA
:1002D00021F007018D46704710B50446AFF300804A
:1002E0002046BDE81040FFF7A8BF00000048704757
:1002F0000000002001491820ABBEFEE726000200E6
:100300007047000082B001904EF21401CEF200015D
:1003100043F67F6008604EF21801CEF20001002023
:1003200008604EF21002CEF20002116841F00501A1
:1003300011600090FFE700980199884210DAFFE70A
:10034000FFE74EF21000CEF200000068C003002864
:1003500001D4FFE7F5E7FFE7009801300090EAE7F6
:100360004EF21001CEF200010020086002B070478A
:1003700043F63001C4F20201086840F00200086050
:10038000086840F00400086040F20041C4F2020135
:10039000086820F44C400860086840F48840086011
:1003A00040F60001C4F20201086820F47F400860B2
:1003B000086840F4AA40086040F20C41C4F202010F
:1003C000086820F44C40086040F60C01C4F20201B9
:1003D000086820F47F4008607047000080B5002066
:1003E00000F044F8012000F041F880BD80B586B0EF
:1003F000FFF7BEFF142000F0B7F90320019000F0D2
:1004000035F8052000F0B0F9019800F02FF8012030
:10041000049000F0A9F9019800F028F80220029059
:1004200000F024F8029800F021F80820039000F072
:100430001DF80020059000F019F8039800F016F858
:10044000059800F013F8049800F010F8059800F0F3
:100450000DF8062000F00AF8059800F007F80C20C7
:1004600000F004F8FFF7BAFF06B080BD80B582B097
:10047000019040F21441C4F202010091086820F09A
:1004800020000860086840F080000860019800F0D3
:100490000BF8042000F068F90099086820F080004B
:1004A000086002B080BD000081B000909DF800009F
:1004B000C00748B1FFE740F61401C4F20201086822
:1004C00040F01000086008E040F61401C4F2020198
:1004D000086820F010000860FFE79DF80000800722
:1004E000002809D5FFE740F61401C4F202010868AC
:1004F00040F02000086008E040F61401C4F2020158
:10050000086820F020000860FFE79DF80000400721
:10051000002809D5FFE740F61401C4F2020108687B
:1005200040F04000086008E040F61401C4F2020107
:10053000086820F040000860FFE79DF80000000711
:10054000002809D5FFE740F61401C4F2020108684B
:1005500040F08000086008E040F61401C4F2020197
:10056000086820F080000860FFE701B070470000D5
:1005700080B582B08DF807008DF806109DF8070051
:10058000012819D1FFE79DF806007F308DF805009E
:100590009DF8050000098DF804009DF8050000F0A5
:1005A0000F008DF803009DF80400FFF75FFF9DF832
:1005B0000300FFF75BFF5CE09DF80700022819D1FC
:1005C000FFE79DF80600BF308DF805009DF8050097
:1005D00000098DF804009DF8050000F00F008DF86B
:1005E00003009DF80400FFF741FF9DF80300FFF7AB
:1005F0003DFF3DE09DF80700032819D1FFE79DF876
:10060000060093308DF805009DF8050000098DF86F
:1006100004009DF8050000F00F008DF803009DF820
:100620000400FFF723FF9DF80300FFF71FFF1EE004
:100630009DF80700042819D1FFE79DF80600D33084
:100640008DF805009DF8050000098DF804009DF85F
:10065000050000F00F008DF803009DF80400FFF77F
:1006600005FF9DF80300FFF701FFFFE7FFE7FFE746
:10067000FFE702B080BD000080B584B08DF80F00A8
:100680009DF80F0000280BD4FFE79DF80F00092804
:1006900006DCFFE79DF80F0030308DF80F00FFE714
:1006A0009DF80F0000F00F008DF80E009DF80F0070
:1006B00000F0F0008DF80D0040F21441C4F2020188
:1006C0000291086840F0200008609DF80D000009C4
:1006D000FFF7EAFE0299086840F0800008600420F5
:1006E000019000F041F80299086820F0800008604D
:1006F0009DF80E00FFF7D8FE0198029A116841F0AC
:100700008001116000F030F80299086820F0800044
:10071000086004B080BD000080B582B00190002068
:100720000090FFE701980099405C50B1FFE7019805
:100730000099405CFFF7A0FFFFE7009801300090B0
:10074000F0E702B080BD00004EF68851CEF2000105
:10075000086840F4700008604EF60851CEF20001BF
:100760004FF000600860704782B001904EF21401B3
:10077000CEF2000143F67F6008604EF21801CEF21F
:100780000001002008604EF21002CEF20002116853
:100790004FF6F873CFF6FE7319401160116841F0FF
:1007A000050111600090FFE700980199884210DA76
:1007B000FFE7FFE74EF21000CEF200000068C00332
:1007C000002801D4FFE7F5E7FFE70098013000902B
:1007D000EAE74EF21001CEF200010020086002B0FC
:1007E0007047000043F63001C4F20201086840F08F
:1007F000010008600022C4F20202106820F03F00ED
:1008000010600C22C4F20202106820F03F00106059
:10081000086840F00200086040F20041C4F20201A2
:10082000086820F07F400860086840F0AA4008602F
:1008300040F20C41C4F20201086820F07F400860D9
:100840007047000080B582B000200090FFE700985C
:10085000032848D8FFE700994FF4805000FA01F2CE
:1008600040F21441C4F202010868104308600320FA
:10087000FFF748FD1020C4F202000068C00720B155
:10088000FFE74B208DF807002DE01020C4F2020096
:1008900000688007002804D5FFE74C208DF807008A
:1008A00021E01020C4F2020000684007002804D5AF
:1008B000FFE702208DF8070015E0FFE7FFE70520BE
:1008C000FFF720FD00996FF4805000FA01F240F22A
:1008D0001441C4F20201086810400860FFE7009864
:1008E00001300090B3E79DF8070002B080BD000022
:1008F00080B582B000200190FFF778FDFFF772FF0E
:1009000001200421FFF734FE40F65810C0F6000025
:10091000FFF702FFFFE7FFF795FF40F26001C2F229
:1009200000010091087004200121FFF721FE0098CA
:100930000078FFF7A1FE3220FFF716FFEBE7F1EE9C
:10094000100A4FF6FF71C0F2C03120EA010040F0FA
:100950004070E1EE100A70474B4559504144205415
:10096000455354494E470000780900080000002014
:08097000680600000002000807
:04000005080001C529
:00000001FF
