:020000040800F2
:10000000D8060020490200085102000853020008E7
:1000100055020008570200085902000800000000BD
:100020000000000000000000000000005B0200086B
:100030005D020008000000005F0200086102000885
:1000400063020008630200086302000863020008FC
:1000500063020008630200086302000863020008EC
:1000600063020008630200086302000863020008DC
:1000700063020008630200086302000863020008CC
:1000800063020008630200086302000863020008BC
:1000900063020008630200086302000863020008AC
:1000A000630200086302000863020008630200089C
:1000B000630200086302000863020008630200088C
:1000C000630200086302000863020008630200087C
:1000D000630200086302000863020008630200086C
:1000E000630200086302000863020008630200085C
:1000F000630200086302000863020008630200084C
:10010000630200086302000863020008630200083B
:10011000630200086302000863020008630200082B
:10012000630200086302000863020008630200081B
:1001300063020008000000000000000063020008E5
:1001400063020008630200086302000863020008FB
:1001500063020008630200086302000863020008EB
:1001600063020008630200086302000863020008DB
:100170006302000863020008630200080000000038
:100180000000000063020008000000000000000002
:100190006302000800000000000000006302000885
:1001A00000000000000000000000000063020008E2
:1001B000630200086302000863020008630200088B
:1001C0006302000800F002F800F02EF80AA090E8A0
:1001D000000C82448344AAF10107DA4501D100F002
:1001E00023F8AFF2090EBAE80F0013F0010F18BFA1
:1001F000FB1A43F001031847B8020000C8020000D0
:100200000023002400250026103A28BF78C1FBD81F
:10021000520728BF30C148BF0B6070471FB500F0C0
:1002200039F91FBD10B510BD00F031F81146FFF7C8
:10023000F5FF00F0CDF800F04FF803B4FFF7F2FF40
:1002400003BC00F057F80000094880470948004700
:10025000FEE7FEE7FEE7FEE7FEE7FEE7FEE7FEE776
:10026000FEE7FEE704480549054A064B70470000D3
:1002700091030008C5010008D8000020D80600201E
:10028000D8020020D802002070477047704775469A
:1002900000F02CF8AE4605006946534620F00700F2
:1002A000854618B020B5FFF7DDFFBDE820404FF0D0
:1002B00000064FF000074FF000084FF0000BAC466F
:1002C000ACE8C009ACE8C009ACE8C009ACE8C009BA
:1002D00021F007018D46704710B50446AFF300804A
:1002E0002046BDE81040FFF7A8BF00000048704757
:1002F0000000002001491820ABBEFEE726000200E6
:100300007047000043F63000C4F20200016841F07B
:1003100001010160416941F4805141610020C4F252
:100320000200016821F44C410160016841F4084178
:100330000160016A41F4A0010162016A41F0A0413B
:10034000016243F20000C4F20100016841F440413F
:100350000160016821F408610160016841F40571E0
:100360000160016841F003010160416841F004014E
:100370004160016841F040010160704743F20801AB
:10038000C4F20101486000BF08688007FCD57047CF
:100390004EF68850CEF20000016841F47001016011
:1003A0004FF0006140F8801C7047000040F2600C84
:1003B0006FF00300C2F2000CE02200230CEB0001FE
:1003C000043074280A71A1F80530CB71F6D170475A
:1003D00082B0FFF797FFFFF7E9FFFF250A201F21F3
:1003E000002200230095002600F01CF800F02CF8F5
:1003F000002700BFFCB220461F21002200230095E9
:1004000000F010F800F020F8204600210022002320
:10041000009600F007F800F017F81D2C07F101070F
:10042000E8D3E5E710B540F2600EDDF808C0C2F28F
:10043000000E41F0E0010EEB80040EF82010E27097
:10044000A37084F801C010BD70B500240020FFF730
:1004500095FF032C04F10104F8D340F26005002459
:10046000C2F200054FF0FF36A8194078FFF786FF6B
:100470000136032EF8D101341E2C05F10405F1D10B
:10048000002400BFFF20FFF779FF032C04F10104D3
:10049000F8D370BDF1EE100A4FF6FF71C0F2C03113
:1004A00020EA010040F04070E1EE100A70470000C1
:1004B000C004000800000020D80600000002000868
:04000005080001C529
:00000001FF
