:020000040800F2
:1000000080060020650200086D0200086F020008EB
:100010007102000873020008750200080000000069
:10002000000000000000000000000000770200084F
:1000300079020008000000007B0200087D02000831
:100040007F0200087F0200087F0200087F0200088C
:100050007F0200087F0200087F0200087F0200087C
:100060007F0200087F0200087F0200087F0200086C
:100070007F0200087F0200087F0200087F0200085C
:1000800021030008590300087F0200087F020008CE
:100090007F0200087F0200087F0200087F0200083C
:1000A0007F0200087F0200087F0200087F0200082C
:1000B0007F0200087F0200087F0200087F0200081C
:1000C0007F0200087F0200087F0200087F0200080C
:1000D0007F0200087F0200087F0200087F020008FC
:1000E0007F0200087F0200087F0200087F020008EC
:1000F0007F0200087F0200087F0200087F020008DC
:100100007F0200087F0200087F0200087F020008CB
:100110007F0200087F0200087F0200087F020008BB
:100120007F0200087F0200087F0200087F020008AB
:100130007F02000800000000000000007F020008AD
:100140007F0200087F0200087F0200087F0200088B
:100150007F0200087F0200087F0200087F0200087B
:100160007F0200087F0200087F0200087F0200086B
:100170007F0200087F0200087F02000800000000E4
:10018000000000007F0200080000000000000000E6
:100190007F02000800000000000000007F0200084D
:1001A0000000000000000000000000007F020008C6
:1001B0007F0200087F0200087F0200087F0200081B
:1001C0007F02000800F002F800F03CF80AA090E876
:1001D000000C82448344AAF10107DA4501D100F002
:1001E00031F8AFF2090EBAE80F0013F0010F18BF93
:1001F000FB1A43F001031847C0080000E0080000A4
:10020000103A24BF78C878C1FAD8520724BF30C842
:1002100030C144BF04680C60704700000023002414
:1002200000250026103A28BF78C1FBD8520728BF06
:1002300030C148BF0B6070471FB500F030FC1FBDD8
:1002400010B510BD00F031F81146FFF7F5FF00F0D2
:10025000B7FB00F04FF803B4FFF7F2FF03BC00F068
:1002600057F800000948804709480047FEE7FEE7C5
:10027000FEE7FEE7FEE7FEE7FEE7FEE7FEE7FEE756
:1002800004480549054A064B70470000F908000874
:10029000C5010008800000208006002080020020A8
:1002A00080020020704770477047754600F02CF8B8
:1002B000AE4605006946534620F00700854618B053
:1002C00020B5FFF7DDFFBDE820404FF000064FF0FE
:1002D00000074FF000084FF0000BAC46ACE8C00937
:1002E000ACE8C009ACE8C009ACE8C00921F00701DE
:1002F0008D46704710B50446AFF300802046BDE838
:100300001040FFF7A8BF0000004870470800002019
:1003100001491820ABBEFEE726000200704700002E
:1003200046F20C00C4F2020050F8081C090558BF40
:10033000704740F27001C2F2000101220A6045F2EA
:100340000041C4F200010A6842F400720A600168C8
:1003500041F400610160704746F20C00C4F20200F3
:1003600050F8081C890258BF704740F27001C2F271
:10037000000101220A6045F20041C4F200010A684E
:1003800042F400720A60016841F400110160704794
:10039000002808BF704746F28802C4F202021368C0
:1003A00023F00103136000BF1368DB07FCD1D060AA
:1003B00045F21040C4F200009060516052F87C0C8D
:1003C00040F4006042F87C0C106840F001001060BE
:1003D00070470000002808BF704746F2A002C4F230
:1003E0000202136823F00103136000BF1368DB07E8
:1003F000FCD1D06045F21040C4F200009060481C6F
:10040000506052F8940C40F4001042F8940C1068BC
:1004100040F001001060704743F63000C4F2020063
:10042000016841F002010160016841F004010160CE
:1004300040F20040C4F20200016821F44C41016026
:10044000016841F488410160D0F8001421F47F4133
:10045000C0F80014D0F8001441F4AA41C0F8001408
:10046000C16821F44C41C16040F60C00C4F20200A6
:10047000016821F47F4101607047000043F63000BD
:10048000C4F20200016840F6FF7241F0020101600F
:10049000016941F40011016140F20040C4F2020020
:1004A000016821F470210160016841F4202101609C
:1004B000416A21F0FF014162416A41F04401416219
:1004C000416841F440714160C16821F47021C1600C
:1004D000C16841F4A021C16045F20040C4F20000AF
:1004E000016841F400410160016821F400410160AC
:1004F000016821F080010160016821F04001016084
:10050000416841F480514160416841F400614160BB
:10051000416821F03F014160416841F010014160B4
:10052000C1699143C161C16941F05001C161016A72
:1005300021F03F010162016A41F01101016201688D
:1005400041F001010160704710B545F21444944632
:10055000C4F2000462689207FCD454F8142C42F4EC
:10056000807244F8142C00BF2268D207FCD04000EF
:100570002268C0B244F8040C22689207FCD52268B5
:10058000626800BF22681206FCD554F8142C012BB7
:1005900022F4806288BF02F5806244F8142C44F88B
:1005A000041C00BF21684907FCD554F8141C41F411
:1005B000807144F8141C00BF2168C907FCD0216871
:1005C00040F0010044F8040C20688007FCD5604628
:1005D0001946FFF7DDFE2068606810BD80B543F660
:1005E0003001C4F202010A6846F2880042F40012A7
:1005F000C4F202000A600021016000BF0168C9075F
:10060000FCD1016841F000710160016821F4F04102
:100610000160016821F0C0010160016841F480615E
:100620000160016841F010010160102000F072F9D2
:1006300080BD000080B543F63001C4F202010A68B3
:1006400046F2A00042F40012C4F202000A60002147
:10065000016000BF0168C907FCD1016841F0007169
:100660000160016821F4F0410160016841F040013E
:100670000160016841F480610160016841F010018E
:100680000160112000F046F980BD000010B545F270
:100690001444C4F2000400BF63689B07FCD454F800
:1006A000143C43F4807344F8143C00BF2368DB0718
:1006B000FCD040002368C0B244F8040C20688007D6
:1006C000FCD508461146FFF785FE2068606810BD1E
:1006D00080B5002000F03EF8012000F03BF880BD1E
:1006E00080B5FFF799FE142000F044F9032000F0D4
:1006F00031F8052000F03EF9032000F02BF801202E
:1007000000F038F9032000F025F8022000F022F86C
:10071000022000F01FF8082000F01CF8002000F074
:1007200019F8082000F016F8002000F013F8012056
:1007300000F010F8002000F00DF8062000F00AF894
:10074000002000F007F80C2000F004F8FFF7C0FFCD
:1007500080BD000010B540F21444C4F202042168C8
:1007600021F020012160216841F08001216000F02A
:1007700009F8042000F0FEF8206820F080002060D6
:1007800010BD000040F61401C4F202010A68C0F373
:100790005A0360F304120A600A6863F345120A60A0
:1007A0000A68C0F3990363F386120A600A68C0F30B
:1007B000D80060F3C7120A60704700000138C0B269
:1007C000032888BF704710B54BF67F72C000CDF28A
:1007D000933222FA00F00144C8B2000901F00F047C
:1007E000FFF7B8FF2046FFF7B5FFBDE810407047A0
:1007F000B0B540F21445C4F202050A2838BF3030C3
:100800002A68C1B200F00F0442F0200028600809F5
:10081000FFF7B8FF286840F080002860042000F04F
:10082000A9F8286820F0800028602046FFF7AAFF7A
:10083000286840F080002860042000F09BF82868B9
:1008400020F080002860B0BD2DE9F04381B08046E3
:1008500000283CD0B8F1090F02D80020FFF7C8FFEC
:100860004FF00009B8F1000F0CD04CF6CD40CCF69B
:10087000CC404146A1FB00230A294FEAD30109F1EC
:100880000109F7D2B9F1000F1ED0C9F10006002707
:100890000CE000BFB8FBF4F5E8B2FFF7A9FF05FBD9
:1008A000148801374F4506F101060DD0A9EB07006A
:1008B00001240228EED3304604EB84010130421CAF
:1008C0004FEA4104F8D1E5E701B0BDE8F08300202C
:1008D000FFF78EFFB8F1090FBFD9C1E710B5017856
:1008E000002908BF10BD441E14F8010FFFF780FF58
:1008F00060780028F8D110BD4EF68850CEF2000086
:10090000016841F4700101604FF0006140F8801C03
:100910007047000000F01F00012101FA00F04EF2C4
:100920000011CEF2000108607047000006290BD8C4
:10093000DFE801F00404071B0D071200C0F30211E9
:100940000BE0C0F3001104E00020C0B27047C0F318
:10095000011141EA810102E0010901EB810100F08E
:100960000F0000EB4100C0B2704700F00700C0B2BA
:10097000704700004EF2100143F67F02CEF20001F4
:10098000C0F201024FF0000C4A60C1F808C00B68C9
:100990004FF6F872CFF6FE721A400A600A68012814
:1009A00042F005020A6007DB002300BF0A68D20399
:1009B000FCD501338342F9D1C1F800C07047000073
:1009C000FFF78EFEFFF75AFDFFF708FEFFF732FE36
:1009D00001200521FFF7F2FE26A0FFF77FFF40F27E
:1009E0000001C2F2000168200822FFF74FFE00BF9D
:1009F00000F048F80028FBD000F04AF840F27408F4
:100A0000C2F2000840F26806A8F10109C2F200062D
:100A10006820002142460723FFF796FD00F032F8D8
:100A20000028FBD000F034F84FF0FF344D4600BFF3
:100A300015F8010F671CF9B2FFF778FF3119062F7F
:100A40003C464870F4D102200121FFF7B7FEB07890
:100A5000FFF7FAFE02200421FFF7B0FE7078FFF7DF
:100A6000F3FE02200721FFF7A9FE3078FFF7ECFE26
:100A7000CEE700BF54455354494E472044533332C8
:100A80003331000040F27000C2F20000006870478D
:100A900040F27000C2F20000002101607047F1EEE8
:100AA000100A4FF6FF71C0F2C03120EA010040F099
:100AB0004070E1EE100A7047D80A000800000020DC
:100AC0000800000000020008E00A000808000020FA
:100AD000780600001C02000800005972032601225B
:04000005080001C529
:00000001FF
